{
  "contractName": "DEX",
  "contractAddress": "0xb2EC19df33422012F3E750AE1e7255a2CF93e029",
  "abi": [
    {
      "inputs": [
        {
          "internalType": "uint16",
          "name": "_feePercent",
          "type": "uint16"
        },
        {
          "internalType": "uint16",
          "name": "_royaltyFeePercent",
          "type": "uint16"
        }
      ],
      "stateMutability": "nonpayable",
      "type": "constructor"
    },
    {
      "anonymous": false,
      "inputs": [
        {
          "indexed": true,
          "internalType": "contract IERC721",
          "name": "tokenContract",
          "type": "address"
        },
        {
          "indexed": false,
          "internalType": "uint256",
          "name": "tokenId",
          "type": "uint256"
        },
        {
          "indexed": true,
          "internalType": "bytes32",
          "name": "orderId",
          "type": "bytes32"
        },
        {
          "indexed": false,
          "internalType": "address",
          "name": "bidder",
          "type": "address"
        },
        {
          "indexed": false,
          "internalType": "uint256",
          "name": "bidPrice",
          "type": "uint256"
        }
      ],
      "name": "Bid",
      "type": "event"
    },
    {
      "anonymous": false,
      "inputs": [
        {
          "indexed": true,
          "internalType": "contract IERC721",
          "name": "tokenContract",
          "type": "address"
        },
        {
          "indexed": false,
          "internalType": "uint256",
          "name": "tokenId",
          "type": "uint256"
        },
        {
          "indexed": true,
          "internalType": "bytes32",
          "name": "orderId",
          "type": "bytes32"
        },
        {
          "indexed": false,
          "internalType": "address",
          "name": "seller",
          "type": "address"
        }
      ],
      "name": "CancelOrder",
      "type": "event"
    },
    {
      "anonymous": false,
      "inputs": [
        {
          "indexed": true,
          "internalType": "contract IERC721",
          "name": "tokenContract",
          "type": "address"
        },
        {
          "indexed": false,
          "internalType": "uint256",
          "name": "tokenId",
          "type": "uint256"
        },
        {
          "indexed": true,
          "internalType": "bytes32",
          "name": "orderId",
          "type": "bytes32"
        },
        {
          "indexed": false,
          "internalType": "address",
          "name": "seller",
          "type": "address"
        },
        {
          "indexed": false,
          "internalType": "address",
          "name": "taker",
          "type": "address"
        },
        {
          "indexed": false,
          "internalType": "uint256",
          "name": "price",
          "type": "uint256"
        }
      ],
      "name": "Claim",
      "type": "event"
    },
    {
      "anonymous": false,
      "inputs": [
        {
          "indexed": true,
          "internalType": "contract IERC721",
          "name": "tokenContract",
          "type": "address"
        },
        {
          "indexed": false,
          "internalType": "uint256",
          "name": "tokenId",
          "type": "uint256"
        },
        {
          "indexed": true,
          "internalType": "bytes32",
          "name": "orderId",
          "type": "bytes32"
        },
        {
          "indexed": false,
          "internalType": "address",
          "name": "seller",
          "type": "address"
        },
        {
          "indexed": true,
          "internalType": "uint8",
          "name": "orderType",
          "type": "uint8"
        },
        {
          "indexed": false,
          "internalType": "uint256",
          "name": "startPrice",
          "type": "uint256"
        },
        {
          "indexed": false,
          "internalType": "uint256",
          "name": "buyItNowPrice",
          "type": "uint256"
        }
      ],
      "name": "MakeOrder",
      "type": "event"
    },
    {
      "anonymous": false,
      "inputs": [
        {
          "indexed": false,
          "internalType": "address",
          "name": "sender",
          "type": "address"
        },
        {
          "indexed": false,
          "internalType": "uint256",
          "name": "value",
          "type": "uint256"
        }
      ],
      "name": "Received",
      "type": "event"
    },
    {
      "inputs": [],
      "name": "admin",
      "outputs": [
        {
          "internalType": "address",
          "name": "",
          "type": "address"
        }
      ],
      "stateMutability": "view",
      "type": "function",
      "constant": true
    },
    {
      "inputs": [
        {
          "internalType": "address",
          "name": "_newAdmin",
          "type": "address"
        }
      ],
      "name": "changeAdmin",
      "outputs": [],
      "stateMutability": "nonpayable",
      "type": "function"
    },
    {
      "inputs": [
        {
          "internalType": "address",
          "name": "_feeAddress",
          "type": "address"
        }
      ],
      "name": "changeFeeAddress",
      "outputs": [],
      "stateMutability": "nonpayable",
      "type": "function"
    },
    {
      "inputs": [
        {
          "internalType": "uint16",
          "name": "_percent",
          "type": "uint16"
        }
      ],
      "name": "changeFeePercent",
      "outputs": [],
      "stateMutability": "nonpayable",
      "type": "function"
    },
    {
      "inputs": [],
      "name": "feeAddress",
      "outputs": [
        {
          "internalType": "address",
          "name": "",
          "type": "address"
        }
      ],
      "stateMutability": "view",
      "type": "function",
      "constant": true
    },
    {
      "inputs": [],
      "name": "feePercent",
      "outputs": [
        {
          "internalType": "uint16",
          "name": "",
          "type": "uint16"
        }
      ],
      "stateMutability": "view",
      "type": "function",
      "constant": true
    },
    {
      "inputs": [
        {
          "internalType": "bytes32",
          "name": "",
          "type": "bytes32"
        }
      ],
      "name": "orderBook",
      "outputs": [
        {
          "internalType": "enum DEX_Internal.OrderType",
          "name": "orderType",
          "type": "uint8"
        },
        {
          "internalType": "enum DEX_Internal.OrderStatus",
          "name": "status",
          "type": "uint8"
        },
        {
          "internalType": "address",
          "name": "seller",
          "type": "address"
        },
        {
          "internalType": "contract IERC721",
          "name": "tokenContract",
          "type": "address"
        },
        {
          "internalType": "uint256",
          "name": "tokenId",
          "type": "uint256"
        },
        {
          "internalType": "uint256",
          "name": "startPrice",
          "type": "uint256"
        },
        {
          "internalType": "uint256",
          "name": "fixedPrice",
          "type": "uint256"
        },
        {
          "internalType": "uint256",
          "name": "startTime",
          "type": "uint256"
        },
        {
          "internalType": "uint256",
          "name": "endTime",
          "type": "uint256"
        },
        {
          "internalType": "uint256",
          "name": "lastBidPrice",
          "type": "uint256"
        },
        {
          "internalType": "address",
          "name": "lastBidder",
          "type": "address"
        }
      ],
      "stateMutability": "view",
      "type": "function",
      "constant": true
    },
    {
      "inputs": [
        {
          "internalType": "address",
          "name": "",
          "type": "address"
        },
        {
          "internalType": "uint256",
          "name": "",
          "type": "uint256"
        }
      ],
      "name": "orderIdBySeller",
      "outputs": [
        {
          "internalType": "bytes32",
          "name": "",
          "type": "bytes32"
        }
      ],
      "stateMutability": "view",
      "type": "function",
      "constant": true
    },
    {
      "inputs": [
        {
          "internalType": "contract IERC721",
          "name": "",
          "type": "address"
        },
        {
          "internalType": "uint256",
          "name": "",
          "type": "uint256"
        }
      ],
      "name": "orderIdByToken",
      "outputs": [
        {
          "internalType": "bytes32",
          "name": "",
          "type": "bytes32"
        }
      ],
      "stateMutability": "view",
      "type": "function",
      "constant": true
    },
    {
      "inputs": [
        {
          "internalType": "uint256",
          "name": "",
          "type": "uint256"
        }
      ],
      "name": "orderList",
      "outputs": [
        {
          "internalType": "bytes32",
          "name": "",
          "type": "bytes32"
        }
      ],
      "stateMutability": "view",
      "type": "function",
      "constant": true
    },
    {
      "inputs": [],
      "name": "royaltyFeePercent",
      "outputs": [
        {
          "internalType": "uint16",
          "name": "",
          "type": "uint16"
        }
      ],
      "stateMutability": "view",
      "type": "function",
      "constant": true
    },
    {
      "stateMutability": "payable",
      "type": "receive",
      "payable": true
    },
    {
      "inputs": [
        {
          "internalType": "contract IERC721",
          "name": "_token",
          "type": "address"
        },
        {
          "internalType": "uint256",
          "name": "_id",
          "type": "uint256"
        },
        {
          "internalType": "uint256",
          "name": "_startPrice",
          "type": "uint256"
        },
        {
          "internalType": "uint256",
          "name": "duration",
          "type": "uint256"
        }
      ],
      "name": "makeAuctionOrder",
      "outputs": [],
      "stateMutability": "nonpayable",
      "type": "function"
    },
    {
      "inputs": [
        {
          "internalType": "contract IERC721",
          "name": "_token",
          "type": "address"
        },
        {
          "internalType": "uint256",
          "name": "_id",
          "type": "uint256"
        },
        {
          "internalType": "uint256",
          "name": "_fixedPrice",
          "type": "uint256"
        },
        {
          "internalType": "uint256",
          "name": "duration",
          "type": "uint256"
        }
      ],
      "name": "makeFixedPriceOrder",
      "outputs": [],
      "stateMutability": "nonpayable",
      "type": "function"
    },
    {
      "inputs": [
        {
          "internalType": "contract IERC721",
          "name": "_token",
          "type": "address"
        },
        {
          "internalType": "uint256",
          "name": "_id",
          "type": "uint256"
        },
        {
          "internalType": "uint256",
          "name": "_startPrice",
          "type": "uint256"
        },
        {
          "internalType": "uint256",
          "name": "_fixedPrice",
          "type": "uint256"
        },
        {
          "internalType": "uint256",
          "name": "duration",
          "type": "uint256"
        }
      ],
      "name": "makeMixedOrder",
      "outputs": [],
      "stateMutability": "nonpayable",
      "type": "function"
    },
    {
      "inputs": [
        {
          "internalType": "bytes32",
          "name": "_order",
          "type": "bytes32"
        }
      ],
      "name": "getCurrentPrice",
      "outputs": [
        {
          "internalType": "uint256",
          "name": "",
          "type": "uint256"
        }
      ],
      "stateMutability": "view",
      "type": "function",
      "constant": true
    },
    {
      "inputs": [
        {
          "internalType": "bytes32",
          "name": "_order",
          "type": "bytes32"
        }
      ],
      "name": "getOrderStatus",
      "outputs": [
        {
          "internalType": "string",
          "name": "",
          "type": "string"
        }
      ],
      "stateMutability": "view",
      "type": "function",
      "constant": true
    },
    {
      "inputs": [],
      "name": "getOrdersList",
      "outputs": [
        {
          "internalType": "bytes32[]",
          "name": "",
          "type": "bytes32[]"
        }
      ],
      "stateMutability": "view",
      "type": "function",
      "constant": true
    },
    {
      "inputs": [
        {
          "internalType": "bytes32",
          "name": "_order",
          "type": "bytes32"
        }
      ],
      "name": "getOrderInfo",
      "outputs": [
        {
          "components": [
            {
              "internalType": "contract IERC721",
              "name": "tokenAddress",
              "type": "address"
            },
            {
              "internalType": "uint256",
              "name": "tokenId",
              "type": "uint256"
            },
            {
              "internalType": "string",
              "name": "tokenMetadataURI",
              "type": "string"
            },
            {
              "internalType": "address",
              "name": "seller",
              "type": "address"
            },
            {
              "internalType": "uint256",
              "name": "startPrice",
              "type": "uint256"
            },
            {
              "internalType": "uint256",
              "name": "fixedPrice",
              "type": "uint256"
            },
            {
              "internalType": "uint256",
              "name": "actualPrice",
              "type": "uint256"
            },
            {
              "internalType": "address",
              "name": "lastBidder",
              "type": "address"
            },
            {
              "internalType": "uint256",
              "name": "endTime",
              "type": "uint256"
            }
          ],
          "internalType": "struct DEX_Internal.OrderInfo",
          "name": "orderInfo",
          "type": "tuple"
        }
      ],
      "stateMutability": "view",
      "type": "function",
      "constant": true
    },
    {
      "inputs": [
        {
          "internalType": "address",
          "name": "_seller",
          "type": "address"
        }
      ],
      "name": "sellerTotalOrder",
      "outputs": [
        {
          "internalType": "uint256",
          "name": "",
          "type": "uint256"
        }
      ],
      "stateMutability": "view",
      "type": "function",
      "constant": true
    },
    {
      "inputs": [
        {
          "internalType": "bytes32",
          "name": "_order",
          "type": "bytes32"
        }
      ],
      "name": "bid",
      "outputs": [],
      "stateMutability": "payable",
      "type": "function",
      "payable": true
    },
    {
      "inputs": [
        {
          "internalType": "bytes32",
          "name": "_order",
          "type": "bytes32"
        }
      ],
      "name": "buyItNow",
      "outputs": [],
      "stateMutability": "payable",
      "type": "function",
      "payable": true
    },
    {
      "inputs": [
        {
          "internalType": "bytes32",
          "name": "_order",
          "type": "bytes32"
        }
      ],
      "name": "claim",
      "outputs": [],
      "stateMutability": "nonpayable",
      "type": "function"
    },
    {
      "inputs": [
        {
          "internalType": "bytes32",
          "name": "_order",
          "type": "bytes32"
        }
      ],
      "name": "cancelOrder",
      "outputs": [],
      "stateMutability": "nonpayable",
      "type": "function"
    }
  ],
  "bytecode": "0x60806040523480156200001157600080fd5b50604051620054133803806200541383398181016040528101906200003791906200018f565b81816127108261ffff16111562000085576040517f08c379a00000000000000000000000000000000000000000000000000000000081526004016200007c9062000237565b60405180910390fd5b33600460006101000a81548173ffffffffffffffffffffffffffffffffffffffff021916908373ffffffffffffffffffffffffffffffffffffffff16021790555033600560006101000a81548173ffffffffffffffffffffffffffffffffffffffff021916908373ffffffffffffffffffffffffffffffffffffffff16021790555081600560146101000a81548161ffff021916908361ffff16021790555080600560166101000a81548161ffff021916908361ffff1602179055505050505062000259565b600080fd5b600061ffff82169050919050565b620001698162000150565b81146200017557600080fd5b50565b60008151905062000189816200015e565b92915050565b60008060408385031215620001a957620001a86200014b565b5b6000620001b98582860162000178565b9250506020620001cc8582860162000178565b9150509250929050565b600082825260208201905092915050565b7f696e7075742076616c7565206973206d6f7265207468616e2031303025000000600082015250565b60006200021f601d83620001d6565b91506200022c82620001e7565b602082019050919050565b60006020820190508181036000830152620002528162000210565b9050919050565b6151aa80620002696000396000f3fe6080604052600436106101445760003560e01c80638ba39adb116100b6578063c0a8f1b61161006f578063c0a8f1b6146104d6578063c124e6e0146104ff578063dca615ed14610528578063f851a44014610553578063f916267b1461057e578063fbb49671146105a957610184565b80638ba39adb146103c85780638f283970146103e4578063957bb1e01461040d578063a71dee9514610429578063bd1bceca14610466578063bd66528a146104ad57610184565b80634127535811610108578063412753581461029257806346423aa7146102bd5780637489ec23146102fa578063768c6ec01461032357806376f75e7f146103605780637fd6f15c1461039d57610184565b806308745c981461018957806311d36ba0146101c6578063161e444e146102035780631c14796c14610240578063285e14061461026957610184565b36610184577f88a5966d370b9919b20f3e2c13ff65706f196a4e32cc2c12bf57088f88525874333460405161017a9291906138bd565b60405180910390a1005b600080fd5b34801561019557600080fd5b506101b060048036038101906101ab9190613952565b6105d2565b6040516101bd91906139ab565b60405180910390f35b3480156101d257600080fd5b506101ed60048036038101906101e891906139c6565b610603565b6040516101fa91906139f3565b60405180910390f35b34801561020f57600080fd5b5061022a60048036038101906102259190613a3a565b61064f565b60405161023791906139f3565b60405180910390f35b34801561024c57600080fd5b5061026760048036038101906102629190613aa5565b610661565b005b34801561027557600080fd5b50610290600480360381019061028b91906139c6565b610694565b005b34801561029e57600080fd5b506102a7610768565b6040516102b49190613b0c565b60405180910390f35b3480156102c957600080fd5b506102e460048036038101906102df9190613a3a565b61078e565b6040516102f19190613bc0565b60405180910390f35b34801561030657600080fd5b50610321600480360381019061031c9190613a3a565b6107a0565b005b34801561032f57600080fd5b5061034a60048036038101906103459190613a3a565b6107ac565b6040516103579190613d6e565b60405180910390f35b34801561036c57600080fd5b5061038760048036038101906103829190613d90565b610b32565b60405161039491906139ab565b60405180910390f35b3480156103a957600080fd5b506103b2610b56565b6040516103bf9190613dda565b60405180910390f35b6103e260048036038101906103dd9190613a3a565b610b6a565b005b3480156103f057600080fd5b5061040b600480360381019061040691906139c6565b610b76565b005b61042760048036038101906104229190613a3a565b610c4a565b005b34801561043557600080fd5b50610450600480360381019061044b9190613df5565b610c56565b60405161045d91906139ab565b60405180910390f35b34801561047257600080fd5b5061048d60048036038101906104889190613a3a565b610c7b565b6040516104a49b9a99989796959493929190613f03565b60405180910390f35b3480156104b957600080fd5b506104d460048036038101906104cf9190613a3a565b610d4f565b005b3480156104e257600080fd5b506104fd60048036038101906104f89190613aa5565b610d5b565b005b34801561050b57600080fd5b5061052660048036038101906105219190613fae565b610d8e565b005b34801561053457600080fd5b5061053d610dc1565b60405161054a9190613dda565b60405180910390f35b34801561055f57600080fd5b50610568610dd5565b6040516105759190613b0c565b60405180910390f35b34801561058a57600080fd5b50610593610dfb565b6040516105a091906140e7565b60405180910390f35b3480156105b557600080fd5b506105d060048036038101906105cb9190614135565b610e53565b005b600160205281600052604060002081815481106105ee57600080fd5b90600052602060002001600091509150505481565b6000600160008373ffffffffffffffffffffffffffffffffffffffff1673ffffffffffffffffffffffffffffffffffffffff168152602001908152602001600020805490509050919050565b600061065a82610f4c565b9050919050565b60006001826106709190614191565b4261067b91906141eb565b905061068d6001868660008786611210565b5050505050565b600460009054906101000a900473ffffffffffffffffffffffffffffffffffffffff1673ffffffffffffffffffffffffffffffffffffffff163373ffffffffffffffffffffffffffffffffffffffff1614610724576040517f08c379a000000000000000000000000000000000000000000000000000000000815260040161071b9061428d565b60405180910390fd5b80600560006101000a81548173ffffffffffffffffffffffffffffffffffffffff021916908373ffffffffffffffffffffffffffffffffffffffff16021790555050565b600560009054906101000a900473ffffffffffffffffffffffffffffffffffffffff1681565b6060610799826115c4565b9050919050565b6107a9816119a6565b50565b6107b46137a5565b600060026000848152602001908152602001600020604051806101600160405290816000820160009054906101000a900460ff1660028111156107fa576107f9613e35565b5b600281111561080c5761080b613e35565b5b81526020016000820160019054906101000a900460ff16600381111561083557610834613e35565b5b600381111561084757610846613e35565b5b81526020016000820160029054906101000a900473ffffffffffffffffffffffffffffffffffffffff1673ffffffffffffffffffffffffffffffffffffffff1673ffffffffffffffffffffffffffffffffffffffff1681526020016001820160009054906101000a900473ffffffffffffffffffffffffffffffffffffffff1673ffffffffffffffffffffffffffffffffffffffff1673ffffffffffffffffffffffffffffffffffffffff1681526020016002820154815260200160038201548152602001600482015481526020016005820154815260200160068201548152602001600782015481526020016008820160009054906101000a900473ffffffffffffffffffffffffffffffffffffffff1673ffffffffffffffffffffffffffffffffffffffff1673ffffffffffffffffffffffffffffffffffffffff16815250509050604051806101200160405280826060015173ffffffffffffffffffffffffffffffffffffffff16815260200182608001518152602001826060015173ffffffffffffffffffffffffffffffffffffffff16633bb3a24d84608001516040518263ffffffff1660e01b8152600401610a0291906139f3565b600060405180830381865afa158015610a1f573d6000803e3d6000fd5b505050506040513d6000823e3d601f19601f82011682018060405250810190610a4891906143d3565b8152602001826040015173ffffffffffffffffffffffffffffffffffffffff1681526020018260a0015181526020018260c0015181526020013073ffffffffffffffffffffffffffffffffffffffff1663161e444e866040518263ffffffff1660e01b8152600401610aba91906139ab565b602060405180830381865afa158015610ad7573d6000803e3d6000fd5b505050506040513d601f19601f82011682018060405250810190610afb9190614431565b815260200182610140015173ffffffffffffffffffffffffffffffffffffffff168152602001826101000151815250915050919050565b60038181548110610b4257600080fd5b906000526020600020016000915090505481565b600560149054906101000a900461ffff1681565b610b7381611a82565b50565b600460009054906101000a900473ffffffffffffffffffffffffffffffffffffffff1673ffffffffffffffffffffffffffffffffffffffff163373ffffffffffffffffffffffffffffffffffffffff1614610c06576040517f08c379a0000000000000000000000000000000000000000000000000000000008152600401610bfd9061428d565b60405180910390fd5b80600460006101000a81548173ffffffffffffffffffffffffffffffffffffffff021916908373ffffffffffffffffffffffffffffffffffffffff16021790555050565b610c5381611e10565b50565b6000602052816000526040600020602052806000526040600020600091509150505481565b60026020528060005260406000206000915090508060000160009054906101000a900460ff16908060000160019054906101000a900460ff16908060000160029054906101000a900473ffffffffffffffffffffffffffffffffffffffff16908060010160009054906101000a900473ffffffffffffffffffffffffffffffffffffffff16908060020154908060030154908060040154908060050154908060060154908060070154908060080160009054906101000a900473ffffffffffffffffffffffffffffffffffffffff1690508b565b610d5881611fbe565b50565b6000600182610d6a9190614191565b42610d7591906141eb565b9050610d876000868686600086611210565b5050505050565b6000600182610d9d9190614191565b42610da891906141eb565b9050610db960028787878786611210565b505050505050565b600560169054906101000a900461ffff1681565b600460009054906101000a900473ffffffffffffffffffffffffffffffffffffffff1681565b60606003805480602002602001604051908101604052809291908181526020018280548015610e4957602002820191906000526020600020905b815481526020019060010190808311610e35575b5050505050905090565b600460009054906101000a900473ffffffffffffffffffffffffffffffffffffffff1673ffffffffffffffffffffffffffffffffffffffff163373ffffffffffffffffffffffffffffffffffffffff1614610ee3576040517f08c379a0000000000000000000000000000000000000000000000000000000008152600401610eda9061428d565b60405180910390fd5b6127108161ffff161115610f2c576040517f08c379a0000000000000000000000000000000000000000000000000000000008152600401610f23906144aa565b60405180910390fd5b80600560146101000a81548161ffff021916908361ffff16021790555050565b60008060026000848152602001908152602001600020604051806101600160405290816000820160009054906101000a900460ff166002811115610f9357610f92613e35565b5b6002811115610fa557610fa4613e35565b5b81526020016000820160019054906101000a900460ff166003811115610fce57610fcd613e35565b5b6003811115610fe057610fdf613e35565b5b81526020016000820160029054906101000a900473ffffffffffffffffffffffffffffffffffffffff1673ffffffffffffffffffffffffffffffffffffffff1673ffffffffffffffffffffffffffffffffffffffff1681526020016001820160009054906101000a900473ffffffffffffffffffffffffffffffffffffffff1673ffffffffffffffffffffffffffffffffffffffff1673ffffffffffffffffffffffffffffffffffffffff1681526020016002820154815260200160038201548152602001600482015481526020016005820154815260200160068201548152602001600782015481526020016008820160009054906101000a900473ffffffffffffffffffffffffffffffffffffffff1673ffffffffffffffffffffffffffffffffffffffff1673ffffffffffffffffffffffffffffffffffffffff16815250509050600081610120015190506001600281111561114257611141613e35565b5b8260000151600281111561115957611158613e35565b5b141561116d578160c001519250505061120b565b6000600281111561118157611180613e35565b5b8260000151600281111561119857611197613e35565b5b14156111bb57600081146111ac57806111b2565b8160a001515b9250505061120b565b6002808111156111ce576111cd613e35565b5b826000015160028111156111e5576111e4613e35565b5b141561120857600081146111f957806111ff565b8160a001515b9250505061120b565b50505b919050565b61121e868686868686612394565b50600061122c8686336127d3565b905060405180610160016040528088600281111561124d5761124c613e35565b5b81526020016000600381111561126657611265613e35565b5b81526020013373ffffffffffffffffffffffffffffffffffffffff1681526020018773ffffffffffffffffffffffffffffffffffffffff16815260200186815260200185815260200184815260200142815260200183815260200160008152602001600073ffffffffffffffffffffffffffffffffffffffff168152506002600083815260200190815260200160002060008201518160000160006101000a81548160ff0219169083600281111561132157611320613e35565b5b021790555060208201518160000160016101000a81548160ff0219169083600381111561135157611350613e35565b5b021790555060408201518160000160026101000a81548173ffffffffffffffffffffffffffffffffffffffff021916908373ffffffffffffffffffffffffffffffffffffffff16021790555060608201518160010160006101000a81548173ffffffffffffffffffffffffffffffffffffffff021916908373ffffffffffffffffffffffffffffffffffffffff1602179055506080820151816002015560a0820151816003015560c0820151816004015560e08201518160050155610100820151816006015561012082015181600701556101408201518160080160006101000a81548173ffffffffffffffffffffffffffffffffffffffff021916908373ffffffffffffffffffffffffffffffffffffffff160217905550905050806000808873ffffffffffffffffffffffffffffffffffffffff1673ffffffffffffffffffffffffffffffffffffffff168152602001908152602001600020600087815260200190815260200160002081905550600160003373ffffffffffffffffffffffffffffffffffffffff1673ffffffffffffffffffffffffffffffffffffffff168152602001908152602001600020819080600181540180825580915050600190039060005260206000200160009091909190915055600381908060018154018082558091505060019003906000526020600020016000909190919091505586600281111561156357611562613e35565b5b60ff16818773ffffffffffffffffffffffffffffffffffffffff167f3112ef28f1bd259c698209265a904b517ba440b5c6f44d546d45eb383c2136dc883389896040516115b394939291906144ca565b60405180910390a450505050505050565b6060600060026000848152602001908152602001600020604051806101600160405290816000820160009054906101000a900460ff16600281111561160c5761160b613e35565b5b600281111561161e5761161d613e35565b5b81526020016000820160019054906101000a900460ff16600381111561164757611646613e35565b5b600381111561165957611658613e35565b5b81526020016000820160029054906101000a900473ffffffffffffffffffffffffffffffffffffffff1673ffffffffffffffffffffffffffffffffffffffff1673ffffffffffffffffffffffffffffffffffffffff1681526020016001820160009054906101000a900473ffffffffffffffffffffffffffffffffffffffff1673ffffffffffffffffffffffffffffffffffffffff1673ffffffffffffffffffffffffffffffffffffffff1681526020016002820154815260200160038201548152602001600482015481526020016005820154815260200160068201548152602001600782015481526020016008820160009054906101000a900473ffffffffffffffffffffffffffffffffffffffff1673ffffffffffffffffffffffffffffffffffffffff1673ffffffffffffffffffffffffffffffffffffffff16815250509050600260038111156117b1576117b0613e35565b5b816020015160038111156117c8576117c7613e35565b5b141561180c576040518060400160405280600881526020017f63616e63656c65640000000000000000000000000000000000000000000000008152509150506119a1565b600160038111156118205761181f613e35565b5b8160200151600381111561183757611836613e35565b5b141561187b576040518060400160405280600481526020017f736f6c64000000000000000000000000000000000000000000000000000000008152509150506119a1565b60038081111561188e5761188d613e35565b5b816020015160038111156118a5576118a4613e35565b5b14806118b5575042816101000151105b156118f8576040518060400160405280600481526020017f6f766572000000000000000000000000000000000000000000000000000000008152509150506119a1565b6000600381111561190c5761190b613e35565b5b8160200151600381111561192357611922613e35565b5b1415611967576040518060400160405280600681526020017f61637469766500000000000000000000000000000000000000000000000000008152509150506119a1565b6040518060400160405280600a81526020017f6e6f7420657869737473000000000000000000000000000000000000000000008152509150505b919050565b6119af8161280b565b6119b881612906565b6119c157600080fd5b600060026000838152602001908152602001600020905060028160000160016101000a81548160ff02191690836003811115611a00576119ff613e35565b5b0217905550818160010160009054906101000a900473ffffffffffffffffffffffffffffffffffffffff1673ffffffffffffffffffffffffffffffffffffffff167f856ac238bc6f4bb0c966003f34f148bf0ef3b60f266e451474de23ff78196c8b836002015433604051611a7692919061450f565b60405180910390a35050565b611a8b8161280b565b611a9481612a79565b611a9d57600080fd5b600060026000838152602001908152602001600020905060018160000160016101000a81548160ff02191690836003811115611adc57611adb613e35565b5b0217905550611cac81604051806101600160405290816000820160009054906101000a900460ff166002811115611b1657611b15613e35565b5b6002811115611b2857611b27613e35565b5b81526020016000820160019054906101000a900460ff166003811115611b5157611b50613e35565b5b6003811115611b6357611b62613e35565b5b81526020016000820160029054906101000a900473ffffffffffffffffffffffffffffffffffffffff1673ffffffffffffffffffffffffffffffffffffffff1673ffffffffffffffffffffffffffffffffffffffff1681526020016001820160009054906101000a900473ffffffffffffffffffffffffffffffffffffffff1673ffffffffffffffffffffffffffffffffffffffff1673ffffffffffffffffffffffffffffffffffffffff1681526020016002820154815260200160038201548152602001600482015481526020016005820154815260200160068201548152602001600782015481526020016008820160009054906101000a900473ffffffffffffffffffffffffffffffffffffffff1673ffffffffffffffffffffffffffffffffffffffff1673ffffffffffffffffffffffffffffffffffffffff16815250506000612d78565b8060010160009054906101000a900473ffffffffffffffffffffffffffffffffffffffff1673ffffffffffffffffffffffffffffffffffffffff166342842e0e8260000160029054906101000a900473ffffffffffffffffffffffffffffffffffffffff163384600201546040518463ffffffff1660e01b8152600401611d3593929190614538565b600060405180830381600087803b158015611d4f57600080fd5b505af1158015611d63573d6000803e3d6000fd5b50505050818160010160009054906101000a900473ffffffffffffffffffffffffffffffffffffffff1673ffffffffffffffffffffffffffffffffffffffff167f37a6d1163573be2522695f96cbee3037bf297187c0378e8903ac1ae0192f699f83600201548460000160029054906101000a900473ffffffffffffffffffffffffffffffffffffffff16338660040154604051611e04949392919061456f565b60405180910390a35050565b611e198161280b565b611e2281612f74565b611e2b57600080fd5b600060026000838152602001908152602001600020905060058160060154611e5391906145b4565b421115611e77576005816006016000828254611e6f91906141eb565b925050819055505b6000816007015414611ef3578060080160009054906101000a900473ffffffffffffffffffffffffffffffffffffffff1673ffffffffffffffffffffffffffffffffffffffff166108fc82600701549081150290604051600060405180830381858888f19350505050158015611ef1573d6000803e3d6000fd5b505b338160080160006101000a81548173ffffffffffffffffffffffffffffffffffffffff021916908373ffffffffffffffffffffffffffffffffffffffff160217905550348160070181905550818160010160009054906101000a900473ffffffffffffffffffffffffffffffffffffffff1673ffffffffffffffffffffffffffffffffffffffff167f7f99059564a74b5d2e3fbf994dec403ab0af5688c9a4e86ca2a933688eaf223b83600201543334604051611fb2939291906145e8565b60405180910390a35050565b611fc78161280b565b611fd08161336b565b611fd957600080fd5b600060026000838152602001908152602001600020905060018160000160016101000a81548160ff0219169083600381111561201857612017613e35565b5b02179055506121e881604051806101600160405290816000820160009054906101000a900460ff16600281111561205257612051613e35565b5b600281111561206457612063613e35565b5b81526020016000820160019054906101000a900460ff16600381111561208d5761208c613e35565b5b600381111561209f5761209e613e35565b5b81526020016000820160029054906101000a900473ffffffffffffffffffffffffffffffffffffffff1673ffffffffffffffffffffffffffffffffffffffff1673ffffffffffffffffffffffffffffffffffffffff1681526020016001820160009054906101000a900473ffffffffffffffffffffffffffffffffffffffff1673ffffffffffffffffffffffffffffffffffffffff1673ffffffffffffffffffffffffffffffffffffffff1681526020016002820154815260200160038201548152602001600482015481526020016005820154815260200160068201548152602001600782015481526020016008820160009054906101000a900473ffffffffffffffffffffffffffffffffffffffff1673ffffffffffffffffffffffffffffffffffffffff1673ffffffffffffffffffffffffffffffffffffffff16815250506001612d78565b8060010160009054906101000a900473ffffffffffffffffffffffffffffffffffffffff1673ffffffffffffffffffffffffffffffffffffffff166342842e0e8260000160029054906101000a900473ffffffffffffffffffffffffffffffffffffffff168360080160009054906101000a900473ffffffffffffffffffffffffffffffffffffffff1684600201546040518463ffffffff1660e01b815260040161229593929190614538565b600060405180830381600087803b1580156122af57600080fd5b505af11580156122c3573d6000803e3d6000fd5b50505050818160010160009054906101000a900473ffffffffffffffffffffffffffffffffffffffff1673ffffffffffffffffffffffffffffffffffffffff167f37a6d1163573be2522695f96cbee3037bf297187c0378e8903ac1ae0192f699f83600201548460000160029054906101000a900473ffffffffffffffffffffffffffffffffffffffff168560080160009054906101000a900473ffffffffffffffffffffffffffffffffffffffff168660070154604051612388949392919061456f565b60405180910390a35050565b60004282116123d8576040517f08c379a00000000000000000000000000000000000000000000000000000000081526004016123cf90614691565b60405180910390fd5b3073ffffffffffffffffffffffffffffffffffffffff168673ffffffffffffffffffffffffffffffffffffffff1663081812fc876040518263ffffffff1660e01b815260040161242891906139f3565b602060405180830381865afa158015612445573d6000803e3d6000fd5b505050506040513d601f19601f8201168201806040525081019061246991906146c6565b73ffffffffffffffffffffffffffffffffffffffff1614806125835750600115158673ffffffffffffffffffffffffffffffffffffffff1663e985e9c58873ffffffffffffffffffffffffffffffffffffffff16636352211e896040518263ffffffff1660e01b81526004016124df91906139f3565b602060405180830381865afa1580156124fc573d6000803e3d6000fd5b505050506040513d601f19601f8201168201806040525081019061252091906146c6565b306040518363ffffffff1660e01b815260040161253e9291906146f3565b602060405180830381865afa15801561255b573d6000803e3d6000fd5b505050506040513d601f19601f8201168201806040525081019061257f9190614754565b1515145b6125c2576040517f08c379a00000000000000000000000000000000000000000000000000000000081526004016125b990614819565b60405180910390fd5b6000801b6000808873ffffffffffffffffffffffffffffffffffffffff1673ffffffffffffffffffffffffffffffffffffffff16815260200190815260200160002060008781526020019081526020016000205414806126b957506000600381111561263157612630613e35565b5b600260008060008a73ffffffffffffffffffffffffffffffffffffffff1673ffffffffffffffffffffffffffffffffffffffff168152602001908152602001600020600089815260200190815260200160002054815260200190815260200160002060000160019054906101000a900460ff1660038111156126b6576126b5613e35565b5b14155b6126f8576040517f08c379a00000000000000000000000000000000000000000000000000000000081526004016126ef906148ab565b60405180910390fd5b60028081111561270b5761270a613e35565b5b87600281111561271e5761271d613e35565b5b146127765760008411806127325750600083115b612771576040517f08c379a000000000000000000000000000000000000000000000000000000000815260040161276890614917565b60405180910390fd5b6127c5565b60008411801561278557508383115b6127c4576040517f08c379a00000000000000000000000000000000000000000000000000000000081526004016127bb906149cf565b60405180910390fd5b5b600190509695505050505050565b6000428484846040516020016127ec9493929190614a6f565b6040516020818303038152906040528051906020012090509392505050565b600073ffffffffffffffffffffffffffffffffffffffff166002600083815260200190815260200160002060000160029054906101000a900473ffffffffffffffffffffffffffffffffffffffff1673ffffffffffffffffffffffffffffffffffffffff1614156128b1576040517f08c379a00000000000000000000000000000000000000000000000000000000081526004016128a890614b09565b60405180910390fd5b600060026000838152602001908152602001600020905042816006015410156129025760038160000160016101000a81548160ff021916908360038111156128fc576128fb613e35565b5b02179055505b5050565b6000806002600084815260200190815260200160002090506000600381111561293257612931613e35565b5b8160000160019054906101000a900460ff16600381111561295657612955613e35565b5b14612996576040517f08c379a000000000000000000000000000000000000000000000000000000000815260040161298d90614b75565b60405180910390fd5b3373ffffffffffffffffffffffffffffffffffffffff168160000160029054906101000a900473ffffffffffffffffffffffffffffffffffffffff1673ffffffffffffffffffffffffffffffffffffffff1614612a28576040517f08c379a0000000000000000000000000000000000000000000000000000000008152600401612a1f90614be1565b60405180910390fd5b6000816007015414612a6f576040517f08c379a0000000000000000000000000000000000000000000000000000000008152600401612a6690614c4d565b60405180910390fd5b6001915050919050565b60008060026000848152602001908152602001600020604051806101600160405290816000820160009054906101000a900460ff166002811115612ac057612abf613e35565b5b6002811115612ad257612ad1613e35565b5b81526020016000820160019054906101000a900460ff166003811115612afb57612afa613e35565b5b6003811115612b0d57612b0c613e35565b5b81526020016000820160029054906101000a900473ffffffffffffffffffffffffffffffffffffffff1673ffffffffffffffffffffffffffffffffffffffff1673ffffffffffffffffffffffffffffffffffffffff1681526020016001820160009054906101000a900473ffffffffffffffffffffffffffffffffffffffff1673ffffffffffffffffffffffffffffffffffffffff1673ffffffffffffffffffffffffffffffffffffffff1681526020016002820154815260200160038201548152602001600482015481526020016005820154815260200160068201548152602001600782015481526020016008820160009054906101000a900473ffffffffffffffffffffffffffffffffffffffff1673ffffffffffffffffffffffffffffffffffffffff1673ffffffffffffffffffffffffffffffffffffffff1681525050905060006003811115612c6557612c64613e35565b5b81602001516003811115612c7c57612c7b613e35565b5b14612cbc576040517f08c379a0000000000000000000000000000000000000000000000000000000008152600401612cb390614cb9565b60405180910390fd5b60006002811115612cd057612ccf613e35565b5b81600001516002811115612ce757612ce6613e35565b5b1415612d28576040517f08c379a0000000000000000000000000000000000000000000000000000000008152600401612d1f90614d25565b60405180910390fd5b8060c001513414612d6e576040517f08c379a0000000000000000000000000000000000000000000000000000000008152600401612d6590614d91565b60405180910390fd5b6001915050919050565b6000612d91836060015184608001518560c001516136d0565b90506000600180811115612da857612da7613e35565b5b836001811115612dbb57612dba613e35565b5b14612dca578360c00151612dd1565b8361012001515b90506000612710600560149054906101000a900461ffff1661ffff1683612df89190614191565b612e029190614de0565b90506000612710600560169054906101000a900461ffff1661ffff168560200151612e2d9190614191565b612e379190614de0565b9050856040015173ffffffffffffffffffffffffffffffffffffffff166108fc8286602001518587612e6991906145b4565b612e7391906145b4565b612e7d91906145b4565b9081150290604051600060405180830381858888f19350505050158015612ea8573d6000803e3d6000fd5b50600560009054906101000a900473ffffffffffffffffffffffffffffffffffffffff1673ffffffffffffffffffffffffffffffffffffffff166108fc8284612ef191906141eb565b9081150290604051600060405180830381858888f19350505050158015612f1c573d6000803e3d6000fd5b50836000015173ffffffffffffffffffffffffffffffffffffffff166108fc85602001519081150290604051600060405180830381858888f19350505050158015612f6b573d6000803e3d6000fd5b50505050505050565b60008060026000848152602001908152602001600020604051806101600160405290816000820160009054906101000a900460ff166002811115612fbb57612fba613e35565b5b6002811115612fcd57612fcc613e35565b5b81526020016000820160019054906101000a900460ff166003811115612ff657612ff5613e35565b5b600381111561300857613007613e35565b5b81526020016000820160029054906101000a900473ffffffffffffffffffffffffffffffffffffffff1673ffffffffffffffffffffffffffffffffffffffff1673ffffffffffffffffffffffffffffffffffffffff1681526020016001820160009054906101000a900473ffffffffffffffffffffffffffffffffffffffff1673ffffffffffffffffffffffffffffffffffffffff1673ffffffffffffffffffffffffffffffffffffffff1681526020016002820154815260200160038201548152602001600482015481526020016005820154815260200160068201548152602001600782015481526020016008820160009054906101000a900473ffffffffffffffffffffffffffffffffffffffff1673ffffffffffffffffffffffffffffffffffffffff1673ffffffffffffffffffffffffffffffffffffffff16815250509050600060038111156131605761315f613e35565b5b8160200151600381111561317757613176613e35565b5b146131b7576040517f08c379a00000000000000000000000000000000000000000000000000000000081526004016131ae90614cb9565b60405180910390fd5b600160028111156131cb576131ca613e35565b5b816000015160028111156131e2576131e1613e35565b5b1415613223576040517f08c379a000000000000000000000000000000000000000000000000000000000815260040161321a90614e83565b60405180910390fd5b3373ffffffffffffffffffffffffffffffffffffffff16816040015173ffffffffffffffffffffffffffffffffffffffff161415613296576040517f08c379a000000000000000000000000000000000000000000000000000000000815260040161328d90614eef565b60405180910390fd5b600081610120015114156132fc578060a0015134101580156132b85750600034115b6132f7576040517f08c379a00000000000000000000000000000000000000000000000000000000081526004016132ee90614f81565b60405180910390fd5b613361565b601481610120015161330e9190614de0565b81610120015161331e91906141eb565b341015613360576040517f08c379a000000000000000000000000000000000000000000000000000000000815260040161335790615013565b60405180910390fd5b5b6001915050919050565b60008060026000848152602001908152602001600020604051806101600160405290816000820160009054906101000a900460ff1660028111156133b2576133b1613e35565b5b60028111156133c4576133c3613e35565b5b81526020016000820160019054906101000a900460ff1660038111156133ed576133ec613e35565b5b60038111156133ff576133fe613e35565b5b81526020016000820160029054906101000a900473ffffffffffffffffffffffffffffffffffffffff1673ffffffffffffffffffffffffffffffffffffffff1673ffffffffffffffffffffffffffffffffffffffff1681526020016001820160009054906101000a900473ffffffffffffffffffffffffffffffffffffffff1673ffffffffffffffffffffffffffffffffffffffff1673ffffffffffffffffffffffffffffffffffffffff1681526020016002820154815260200160038201548152602001600482015481526020016005820154815260200160068201548152602001600782015481526020016008820160009054906101000a900473ffffffffffffffffffffffffffffffffffffffff1673ffffffffffffffffffffffffffffffffffffffff1673ffffffffffffffffffffffffffffffffffffffff1681525050905060038081111561355657613555613e35565b5b8160200151600381111561356d5761356c613e35565b5b146135ad576040517f08c379a00000000000000000000000000000000000000000000000000000000081526004016135a49061507f565b60405180910390fd5b600160028111156135c1576135c0613e35565b5b816000015160028111156135d8576135d7613e35565b5b1415613619576040517f08c379a0000000000000000000000000000000000000000000000000000000008152600401613610906150eb565b60405180910390fd5b3373ffffffffffffffffffffffffffffffffffffffff16816040015173ffffffffffffffffffffffffffffffffffffffff16148061368757503373ffffffffffffffffffffffffffffffffffffffff1681610140015173ffffffffffffffffffffffffffffffffffffffff16145b6136c6576040517f08c379a00000000000000000000000000000000000000000000000000000000081526004016136bd90614be1565b60405180910390fd5b6001915050919050565b6136d8613833565b6000808573ffffffffffffffffffffffffffffffffffffffff16632a55205a86866040518363ffffffff1660e01b815260040161371692919061510b565b6040805180830381865afa158015613732573d6000803e3d6000fd5b505050506040513d601f19601f820116820180604052508101906137569190615134565b9150915081836000019073ffffffffffffffffffffffffffffffffffffffff16908173ffffffffffffffffffffffffffffffffffffffff16815250508083602001818152505050509392505050565b604051806101200160405280600073ffffffffffffffffffffffffffffffffffffffff1681526020016000815260200160608152602001600073ffffffffffffffffffffffffffffffffffffffff168152602001600081526020016000815260200160008152602001600073ffffffffffffffffffffffffffffffffffffffff168152602001600081525090565b6040518060400160405280600073ffffffffffffffffffffffffffffffffffffffff168152602001600081525090565b600073ffffffffffffffffffffffffffffffffffffffff82169050919050565b600061388e82613863565b9050919050565b61389e81613883565b82525050565b6000819050919050565b6138b7816138a4565b82525050565b60006040820190506138d26000830185613895565b6138df60208301846138ae565b9392505050565b6000604051905090565b600080fd5b600080fd5b61390381613883565b811461390e57600080fd5b50565b600081359050613920816138fa565b92915050565b61392f816138a4565b811461393a57600080fd5b50565b60008135905061394c81613926565b92915050565b60008060408385031215613969576139686138f0565b5b600061397785828601613911565b92505060206139888582860161393d565b9150509250929050565b6000819050919050565b6139a581613992565b82525050565b60006020820190506139c0600083018461399c565b92915050565b6000602082840312156139dc576139db6138f0565b5b60006139ea84828501613911565b91505092915050565b6000602082019050613a0860008301846138ae565b92915050565b613a1781613992565b8114613a2257600080fd5b50565b600081359050613a3481613a0e565b92915050565b600060208284031215613a5057613a4f6138f0565b5b6000613a5e84828501613a25565b91505092915050565b6000613a7282613883565b9050919050565b613a8281613a67565b8114613a8d57600080fd5b50565b600081359050613a9f81613a79565b92915050565b60008060008060808587031215613abf57613abe6138f0565b5b6000613acd87828801613a90565b9450506020613ade8782880161393d565b9350506040613aef8782880161393d565b9250506060613b008782880161393d565b91505092959194509250565b6000602082019050613b216000830184613895565b92915050565b600081519050919050565b600082825260208201905092915050565b60005b83811015613b61578082015181840152602081019050613b46565b83811115613b70576000848401525b50505050565b6000601f19601f8301169050919050565b6000613b9282613b27565b613b9c8185613b32565b9350613bac818560208601613b43565b613bb581613b76565b840191505092915050565b60006020820190508181036000830152613bda8184613b87565b905092915050565b6000819050919050565b6000613c07613c02613bfd84613863565b613be2565b613863565b9050919050565b6000613c1982613bec565b9050919050565b6000613c2b82613c0e565b9050919050565b613c3b81613c20565b82525050565b613c4a816138a4565b82525050565b600082825260208201905092915050565b6000613c6c82613b27565b613c768185613c50565b9350613c86818560208601613b43565b613c8f81613b76565b840191505092915050565b613ca381613883565b82525050565b600061012083016000830151613cc26000860182613c32565b506020830151613cd56020860182613c41565b5060408301518482036040860152613ced8282613c61565b9150506060830151613d026060860182613c9a565b506080830151613d156080860182613c41565b5060a0830151613d2860a0860182613c41565b5060c0830151613d3b60c0860182613c41565b5060e0830151613d4e60e0860182613c9a565b50610100830151613d63610100860182613c41565b508091505092915050565b60006020820190508181036000830152613d888184613ca9565b905092915050565b600060208284031215613da657613da56138f0565b5b6000613db48482850161393d565b91505092915050565b600061ffff82169050919050565b613dd481613dbd565b82525050565b6000602082019050613def6000830184613dcb565b92915050565b60008060408385031215613e0c57613e0b6138f0565b5b6000613e1a85828601613a90565b9250506020613e2b8582860161393d565b9150509250929050565b7f4e487b7100000000000000000000000000000000000000000000000000000000600052602160045260246000fd5b60038110613e7557613e74613e35565b5b50565b6000819050613e8682613e64565b919050565b6000613e9682613e78565b9050919050565b613ea681613e8b565b82525050565b60048110613ebd57613ebc613e35565b5b50565b6000819050613ece82613eac565b919050565b6000613ede82613ec0565b9050919050565b613eee81613ed3565b82525050565b613efd81613c20565b82525050565b600061016082019050613f19600083018e613e9d565b613f26602083018d613ee5565b613f33604083018c613895565b613f40606083018b613ef4565b613f4d608083018a6138ae565b613f5a60a08301896138ae565b613f6760c08301886138ae565b613f7460e08301876138ae565b613f826101008301866138ae565b613f906101208301856138ae565b613f9e610140830184613895565b9c9b505050505050505050505050565b600080600080600060a08688031215613fca57613fc96138f0565b5b6000613fd888828901613a90565b9550506020613fe98882890161393d565b9450506040613ffa8882890161393d565b935050606061400b8882890161393d565b925050608061401c8882890161393d565b9150509295509295909350565b600081519050919050565b600082825260208201905092915050565b6000819050602082019050919050565b61405e81613992565b82525050565b60006140708383614055565b60208301905092915050565b6000602082019050919050565b600061409482614029565b61409e8185614034565b93506140a983614045565b8060005b838110156140da5781516140c18882614064565b97506140cc8361407c565b9250506001810190506140ad565b5085935050505092915050565b600060208201905081810360008301526141018184614089565b905092915050565b61411281613dbd565b811461411d57600080fd5b50565b60008135905061412f81614109565b92915050565b60006020828403121561414b5761414a6138f0565b5b600061415984828501614120565b91505092915050565b7f4e487b7100000000000000000000000000000000000000000000000000000000600052601160045260246000fd5b600061419c826138a4565b91506141a7836138a4565b9250817fffffffffffffffffffffffffffffffffffffffffffffffffffffffffffffffff04831182151516156141e0576141df614162565b5b828202905092915050565b60006141f6826138a4565b9150614201836138a4565b9250827fffffffffffffffffffffffffffffffffffffffffffffffffffffffffffffffff0382111561423657614235614162565b5b828201905092915050565b7f4f6e6c792061646d696e2063616e20646f207468697300000000000000000000600082015250565b6000614277601683613b32565b915061428282614241565b602082019050919050565b600060208201905081810360008301526142a68161426a565b9050919050565b600080fd5b600080fd5b7f4e487b7100000000000000000000000000000000000000000000000000000000600052604160045260246000fd5b6142ef82613b76565b810181811067ffffffffffffffff8211171561430e5761430d6142b7565b5b80604052505050565b60006143216138e6565b905061432d82826142e6565b919050565b600067ffffffffffffffff82111561434d5761434c6142b7565b5b61435682613b76565b9050602081019050919050565b600061437661437184614332565b614317565b905082815260208101848484011115614392576143916142b2565b5b61439d848285613b43565b509392505050565b600082601f8301126143ba576143b96142ad565b5b81516143ca848260208601614363565b91505092915050565b6000602082840312156143e9576143e86138f0565b5b600082015167ffffffffffffffff811115614407576144066138f5565b5b614413848285016143a5565b91505092915050565b60008151905061442b81613926565b92915050565b600060208284031215614447576144466138f0565b5b60006144558482850161441c565b91505092915050565b7f696e7075742076616c7565206973206d6f7265207468616e2031303025000000600082015250565b6000614494601d83613b32565b915061449f8261445e565b602082019050919050565b600060208201905081810360008301526144c381614487565b9050919050565b60006080820190506144df60008301876138ae565b6144ec6020830186613895565b6144f960408301856138ae565b61450660608301846138ae565b95945050505050565b600060408201905061452460008301856138ae565b6145316020830184613895565b9392505050565b600060608201905061454d6000830186613895565b61455a6020830185613895565b61456760408301846138ae565b949350505050565b600060808201905061458460008301876138ae565b6145916020830186613895565b61459e6040830185613895565b6145ab60608301846138ae565b95945050505050565b60006145bf826138a4565b91506145ca836138a4565b9250828210156145dd576145dc614162565b5b828203905092915050565b60006060820190506145fd60008301866138ae565b61460a6020830185613895565b61461760408301846138ae565b949350505050565b7f4475726174696f6e206d757374206265206c6f6e676572207468616e207a657260008201527f6f00000000000000000000000000000000000000000000000000000000000000602082015250565b600061467b602183613b32565b91506146868261461f565b604082019050919050565b600060208201905081810360008301526146aa8161466e565b9050919050565b6000815190506146c0816138fa565b92915050565b6000602082840312156146dc576146db6138f0565b5b60006146ea848285016146b1565b91505092915050565b60006040820190506147086000830185613895565b6147156020830184613895565b9392505050565b60008115159050919050565b6147318161471c565b811461473c57600080fd5b50565b60008151905061474e81614728565b92915050565b60006020828403121561476a576147696138f0565b5b60006147788482850161473f565b91505092915050565b7f44455820436f6e7472616374206d75737420626520617070726f76656420746f60008201527f206d616b65207472616e73616374696f6e2077697468207468697320746f6b6560208201527f6e20494400000000000000000000000000000000000000000000000000000000604082015250565b6000614803604483613b32565b915061480e82614781565b606082019050919050565b60006020820190508181036000830152614832816147f6565b9050919050565b7f546865726520697320616c726561647920616e20616374697665206f7264657260008201527f20666f72207468697320746f6b656e2049440000000000000000000000000000602082015250565b6000614895603283613b32565b91506148a082614839565b604082019050919050565b600060208201905081810360008301526148c481614888565b9050919050565b7f5072696365206d757374206265206d6f7265207468616e203000000000000000600082015250565b6000614901601983613b32565b915061490c826148cb565b602082019050919050565b60006020820190508181036000830152614930816148f4565b9050919050565b7f5072696365206d757374206265206d6f7265207468616e203020616e6420276260008201527f757949744e6f77507269636527206d757374206265206772656174657220746860208201527f616e202773746172745072696365270000000000000000000000000000000000604082015250565b60006149b9604f83613b32565b91506149c482614937565b606082019050919050565b600060208201905081810360008301526149e8816149ac565b9050919050565b6000819050919050565b614a0a614a05826138a4565b6149ef565b82525050565b60008160601b9050919050565b6000614a2882614a10565b9050919050565b6000614a3a82614a1d565b9050919050565b614a52614a4d82613c20565b614a2f565b82525050565b614a69614a6482613883565b614a2f565b82525050565b6000614a7b82876149f9565b602082019150614a8b8286614a41565b601482019150614a9b82856149f9565b602082019150614aab8284614a58565b60148201915081905095945050505050565b7f54686973206f7264657220646f6573206e6f7420657869737473000000000000600082015250565b6000614af3601a83613b32565b9150614afe82614abd565b602082019050919050565b60006020820190508181036000830152614b2281614ae6565b9050919050565b7f54686973206f72646572206973206e6f74206163746976650000000000000000600082015250565b6000614b5f601883613b32565b9150614b6a82614b29565b602082019050919050565b60006020820190508181036000830152614b8e81614b52565b9050919050565b7f4163636573732064656e69656400000000000000000000000000000000000000600082015250565b6000614bcb600d83613b32565b9150614bd682614b95565b602082019050919050565b60006020820190508181036000830152614bfa81614bbe565b9050919050565b7f42696464696e6720657869737400000000000000000000000000000000000000600082015250565b6000614c37600d83613b32565b9150614c4282614c01565b602082019050919050565b60006020820190508181036000830152614c6681614c2a565b9050919050565b7f54686973206f72646572206973206f766572206f722063616e63656c65640000600082015250565b6000614ca3601e83613b32565b9150614cae82614c6d565b602082019050919050565b60006020820190508181036000830152614cd281614c96565b9050919050565b7f596f752063616e27742027627579206974206e6f772700000000000000000000600082015250565b6000614d0f601683613b32565b9150614d1a82614cd9565b602082019050919050565b60006020820190508181036000830152614d3e81614d02565b9050919050565b7f57726f6e6720707269636520666f722027427579206974206e6f772127000000600082015250565b6000614d7b601d83613b32565b9150614d8682614d45565b602082019050919050565b60006020820190508181036000830152614daa81614d6e565b9050919050565b7f4e487b7100000000000000000000000000000000000000000000000000000000600052601260045260246000fd5b6000614deb826138a4565b9150614df6836138a4565b925082614e0657614e05614db1565b5b828204905092915050565b7f43616e206e6f742062696420746f20746869732027666978656420707269636560008201527f27206f7264657200000000000000000000000000000000000000000000000000602082015250565b6000614e6d602783613b32565b9150614e7882614e11565b604082019050919050565b60006020820190508181036000830152614e9c81614e60565b9050919050565b7f43616e206e6f742062696420746f20796f7572206f7264657200000000000000600082015250565b6000614ed9601983613b32565b9150614ee482614ea3565b602082019050919050565b60006020820190508181036000830152614f0881614ecc565b9050919050565b7f50726963652063616e2774206265206c657373207468616e202773746172742060008201527f7072696365270000000000000000000000000000000000000000000000000000602082015250565b6000614f6b602683613b32565b9150614f7682614f0f565b604082019050919050565b60006020820190508181036000830152614f9a81614f5e565b9050919050565b7f507269636520697320746f6f206c6f7720286d696e202b35252072657175697260008201527f6564290000000000000000000000000000000000000000000000000000000000602082015250565b6000614ffd602383613b32565b915061500882614fa1565b604082019050919050565b6000602082019050818103600083015261502c81614ff0565b9050919050565b7f54686973206f72646572206973206e6f742066696e6973682079657400000000600082015250565b6000615069601c83613b32565b915061507482615033565b602082019050919050565b600060208201905081810360008301526150988161505c565b9050919050565b7f54686973206f72646572206973206e6f7420616e2061756374696f6e00000000600082015250565b60006150d5601c83613b32565b91506150e08261509f565b602082019050919050565b60006020820190508181036000830152615104816150c8565b9050919050565b600060408201905061512060008301856138ae565b61512d60208301846138ae565b9392505050565b6000806040838503121561514b5761514a6138f0565b5b6000615159858286016146b1565b925050602061516a8582860161441c565b915050925092905056fea2646970667358221220a3a2981095985cd91bf28464a7cbe522494651a5e789d94a193e70a42fa022f764736f6c634300080a0033",
  "immutableReferences": {},
  "source": "// SPDX-License-Identifier: MIT\npragma solidity ^0.8.0;\n\nimport './DEX_Base.sol';\nimport './DEX_Admin.sol';\n\ncontract DEX is DEX_Base, DEX_Admin{\n\n  constructor(uint16 _feePercent, uint16 _royaltyFeePercent) DEX_Internal(_feePercent, _royaltyFeePercent) {\n  }\n\n  function makeAuctionOrder(IERC721 _token, uint256 _id, uint256 _startPrice, uint256 duration) external override {\n    uint256 _endTime = block.timestamp + duration * 1 seconds;\n    _makeOrder(OrderType.AUCTION, _token, _id, _startPrice, 0, _endTime);\n  } \n\n  function makeFixedPriceOrder(IERC721 _token, uint256 _id, uint256 _fixedPrice, uint256 duration) external override  {\n    uint256 _endTime = block.timestamp + duration * 1 seconds;\n    _makeOrder(OrderType.FIXED, _token, _id, 0, _fixedPrice, _endTime);\n  } \n\n  function makeMixedOrder(IERC721 _token, uint256 _id, uint256 _startPrice, uint256 _fixedPrice, uint256 duration) external override {\n    uint256 _endTime = block.timestamp + duration * 1 seconds;\n    _makeOrder(OrderType.MIXED, _token, _id, _startPrice, _fixedPrice, _endTime);\n  }\n\n  function getCurrentPrice(bytes32 _order) external view override returns (uint256) {\n    return _getCurrentPrice(_order);\n  }\n\n  function getOrderStatus(bytes32 _order) external view override returns (string memory) {\n    return _checkOrderStatus(_order);\n  }\n\n  function getOrdersList() external view override returns (bytes32[] memory) {\n    return orderList;\n  }\n\n  function getOrderInfo(bytes32 _order) external view returns(OrderInfo memory orderInfo) {\n    Order memory order = orderBook[_order];\n    return OrderInfo(\n              { tokenAddress: order.tokenContract,\n                tokenId: order.tokenId,\n                tokenMetadataURI: order.tokenContract.getTokenURI(order.tokenId),\n                seller: order.seller,\n                startPrice: order.startPrice,\n                fixedPrice: order.fixedPrice,\n                actualPrice: this.getCurrentPrice(_order),\n                lastBidder: order.lastBidder,\n                endTime: order.endTime\n              }\n            );\n  }\n\n   function sellerTotalOrder(address _seller) external view override returns (uint256) {\n    return orderIdBySeller[_seller].length;\n  }\n\n  function bid(bytes32 _order) payable external override{\n    _bid(_order);\n  }\n\n  function buyItNow(bytes32 _order) payable external override  {\n    _buyItNow(_order);\n  }\n\n  function claim(bytes32 _order) external override {\n    _claim(_order);\n  }\n\n  function cancelOrder(bytes32 _order) external override {\n    _cancelOrder(_order);\n  }\n}",
  "sourcePath": "/home/apifex/DevProjects/Dex/contracts/DEX.sol",
  "compiler": {
    "name": "solc",
    "version": "0.8.10+commit.fc410830.Emscripten.clang"
  },
  "schemaVersion": "3.4.1",
  "updatedAt": "2022-03-05T15:35:18.198Z",
  "networkType": "ethereum",
  "devdoc": {
    "kind": "dev",
    "methods": {},
    "version": 1
  },
  "userdoc": {
    "kind": "user",
    "methods": {},
    "version": 1
  }
}