{
  "contractName": "NFT",
  "contractAddress": "0x4e19FE06026509F495621422356E729617909F1c",
  "abi": [
    {
      "inputs": [
        {
          "internalType": "address payable",
          "name": "admin",
          "type": "address"
        },
        {
          "internalType": "uint256",
          "name": "mintPrice",
          "type": "uint256"
        },
        {
          "internalType": "uint256",
          "name": "defaultRoyalty",
          "type": "uint256"
        }
      ],
      "stateMutability": "nonpayable",
      "type": "constructor"
    },
    {
      "anonymous": false,
      "inputs": [
        {
          "indexed": true,
          "internalType": "address",
          "name": "owner",
          "type": "address"
        },
        {
          "indexed": true,
          "internalType": "address",
          "name": "approved",
          "type": "address"
        },
        {
          "indexed": true,
          "internalType": "uint256",
          "name": "tokenId",
          "type": "uint256"
        }
      ],
      "name": "Approval",
      "type": "event"
    },
    {
      "anonymous": false,
      "inputs": [
        {
          "indexed": true,
          "internalType": "address",
          "name": "owner",
          "type": "address"
        },
        {
          "indexed": true,
          "internalType": "address",
          "name": "operator",
          "type": "address"
        },
        {
          "indexed": false,
          "internalType": "bool",
          "name": "approved",
          "type": "bool"
        }
      ],
      "name": "ApprovalForAll",
      "type": "event"
    },
    {
      "anonymous": false,
      "inputs": [
        {
          "indexed": true,
          "internalType": "address",
          "name": "from",
          "type": "address"
        },
        {
          "indexed": true,
          "internalType": "address",
          "name": "to",
          "type": "address"
        },
        {
          "indexed": true,
          "internalType": "uint256",
          "name": "tokenId",
          "type": "uint256"
        }
      ],
      "name": "Transfer",
      "type": "event"
    },
    {
      "inputs": [
        {
          "internalType": "address",
          "name": "to",
          "type": "address"
        },
        {
          "internalType": "contract IERC721",
          "name": "nftContract",
          "type": "address"
        },
        {
          "internalType": "uint256",
          "name": "_tokenId",
          "type": "uint256"
        },
        {
          "internalType": "string",
          "name": "uri",
          "type": "string"
        }
      ],
      "name": "_mintIfHaveToken",
      "outputs": [],
      "stateMutability": "payable",
      "type": "function",
      "payable": true
    },
    {
      "inputs": [
        {
          "internalType": "address",
          "name": "_approved",
          "type": "address"
        },
        {
          "internalType": "uint256",
          "name": "_tokenId",
          "type": "uint256"
        }
      ],
      "name": "approve",
      "outputs": [],
      "stateMutability": "nonpayable",
      "type": "function"
    },
    {
      "inputs": [
        {
          "internalType": "address",
          "name": "_owner",
          "type": "address"
        }
      ],
      "name": "balanceOf",
      "outputs": [
        {
          "internalType": "uint256",
          "name": "",
          "type": "uint256"
        }
      ],
      "stateMutability": "view",
      "type": "function",
      "constant": true
    },
    {
      "inputs": [
        {
          "internalType": "uint256",
          "name": "_tokenId",
          "type": "uint256"
        }
      ],
      "name": "getApproved",
      "outputs": [
        {
          "internalType": "address",
          "name": "",
          "type": "address"
        }
      ],
      "stateMutability": "view",
      "type": "function",
      "constant": true
    },
    {
      "inputs": [],
      "name": "getMintPrice",
      "outputs": [
        {
          "internalType": "uint256",
          "name": "price",
          "type": "uint256"
        }
      ],
      "stateMutability": "view",
      "type": "function",
      "constant": true
    },
    {
      "inputs": [
        {
          "internalType": "address",
          "name": "_owner",
          "type": "address"
        },
        {
          "internalType": "address",
          "name": "_operator",
          "type": "address"
        }
      ],
      "name": "isApprovedForAll",
      "outputs": [
        {
          "internalType": "bool",
          "name": "",
          "type": "bool"
        }
      ],
      "stateMutability": "view",
      "type": "function",
      "constant": true
    },
    {
      "inputs": [
        {
          "internalType": "address[]",
          "name": "to",
          "type": "address[]"
        },
        {
          "internalType": "uint256[]",
          "name": "tokenId",
          "type": "uint256[]"
        },
        {
          "internalType": "string[]",
          "name": "uri",
          "type": "string[]"
        },
        {
          "internalType": "uint256[]",
          "name": "royalties",
          "type": "uint256[]"
        }
      ],
      "name": "mintMultiple",
      "outputs": [],
      "stateMutability": "nonpayable",
      "type": "function"
    },
    {
      "inputs": [
        {
          "internalType": "string",
          "name": "uri",
          "type": "string"
        }
      ],
      "name": "mintYourToken",
      "outputs": [],
      "stateMutability": "payable",
      "type": "function",
      "payable": true
    },
    {
      "inputs": [
        {
          "internalType": "uint256",
          "name": "_tokenId",
          "type": "uint256"
        }
      ],
      "name": "ownerOf",
      "outputs": [
        {
          "internalType": "address",
          "name": "",
          "type": "address"
        }
      ],
      "stateMutability": "view",
      "type": "function",
      "constant": true
    },
    {
      "inputs": [
        {
          "internalType": "uint256",
          "name": "tokenId",
          "type": "uint256"
        },
        {
          "internalType": "uint256",
          "name": "value",
          "type": "uint256"
        }
      ],
      "name": "royaltyInfo",
      "outputs": [
        {
          "internalType": "address",
          "name": "receiver",
          "type": "address"
        },
        {
          "internalType": "uint256",
          "name": "royaltyAmount",
          "type": "uint256"
        }
      ],
      "stateMutability": "view",
      "type": "function",
      "constant": true
    },
    {
      "inputs": [
        {
          "internalType": "address",
          "name": "to",
          "type": "address"
        },
        {
          "internalType": "uint256",
          "name": "tokenId",
          "type": "uint256"
        },
        {
          "internalType": "string",
          "name": "uri",
          "type": "string"
        },
        {
          "internalType": "uint256",
          "name": "royalties",
          "type": "uint256"
        }
      ],
      "name": "safeMint",
      "outputs": [],
      "stateMutability": "nonpayable",
      "type": "function"
    },
    {
      "inputs": [
        {
          "internalType": "address",
          "name": "_from",
          "type": "address"
        },
        {
          "internalType": "address",
          "name": "_to",
          "type": "address"
        },
        {
          "internalType": "uint256",
          "name": "_tokenId",
          "type": "uint256"
        }
      ],
      "name": "safeTransferFrom",
      "outputs": [],
      "stateMutability": "nonpayable",
      "type": "function"
    },
    {
      "inputs": [
        {
          "internalType": "address",
          "name": "_from",
          "type": "address"
        },
        {
          "internalType": "address",
          "name": "_to",
          "type": "address"
        },
        {
          "internalType": "uint256",
          "name": "_tokenId",
          "type": "uint256"
        },
        {
          "internalType": "bytes",
          "name": "_data",
          "type": "bytes"
        }
      ],
      "name": "safeTransferFrom",
      "outputs": [],
      "stateMutability": "nonpayable",
      "type": "function"
    },
    {
      "inputs": [
        {
          "internalType": "address",
          "name": "_operator",
          "type": "address"
        },
        {
          "internalType": "bool",
          "name": "_approved",
          "type": "bool"
        }
      ],
      "name": "setApprovalForAll",
      "outputs": [],
      "stateMutability": "nonpayable",
      "type": "function"
    },
    {
      "inputs": [
        {
          "internalType": "uint256",
          "name": "price",
          "type": "uint256"
        }
      ],
      "name": "setMintPrice",
      "outputs": [],
      "stateMutability": "nonpayable",
      "type": "function"
    },
    {
      "inputs": [
        {
          "internalType": "contract IERC721",
          "name": "nftContract",
          "type": "address"
        },
        {
          "internalType": "uint256",
          "name": "tokenId",
          "type": "uint256"
        }
      ],
      "name": "setRequiredForMintToken",
      "outputs": [],
      "stateMutability": "nonpayable",
      "type": "function"
    },
    {
      "inputs": [
        {
          "internalType": "address",
          "name": "_from",
          "type": "address"
        },
        {
          "internalType": "address",
          "name": "_to",
          "type": "address"
        },
        {
          "internalType": "uint256",
          "name": "_tokenId",
          "type": "uint256"
        }
      ],
      "name": "transferFrom",
      "outputs": [],
      "stateMutability": "nonpayable",
      "type": "function"
    },
    {
      "inputs": [
        {
          "internalType": "string",
          "name": "baseUri",
          "type": "string"
        }
      ],
      "name": "setBaseURI",
      "outputs": [],
      "stateMutability": "nonpayable",
      "type": "function"
    },
    {
      "inputs": [
        {
          "internalType": "uint256",
          "name": "_tokenId",
          "type": "uint256"
        }
      ],
      "name": "getTokenURI",
      "outputs": [
        {
          "internalType": "string",
          "name": "",
          "type": "string"
        }
      ],
      "stateMutability": "view",
      "type": "function",
      "constant": true
    },
    {
      "inputs": [
        {
          "internalType": "uint256",
          "name": "value",
          "type": "uint256"
        }
      ],
      "name": "setDefaultRoyalty",
      "outputs": [],
      "stateMutability": "nonpayable",
      "type": "function"
    },
    {
      "inputs": [],
      "name": "getDefaultRoyalty",
      "outputs": [
        {
          "internalType": "uint256",
          "name": "defaultRoyalty",
          "type": "uint256"
        }
      ],
      "stateMutability": "view",
      "type": "function",
      "constant": true
    },
    {
      "inputs": [
        {
          "internalType": "uint256",
          "name": "tokenId",
          "type": "uint256"
        },
        {
          "internalType": "address",
          "name": "receiver",
          "type": "address"
        },
        {
          "internalType": "uint256",
          "name": "value",
          "type": "uint256"
        }
      ],
      "name": "changeTokenRoyaly",
      "outputs": [],
      "stateMutability": "nonpayable",
      "type": "function"
    },
    {
      "inputs": [
        {
          "internalType": "uint256",
          "name": "tokenId",
          "type": "uint256"
        }
      ],
      "name": "burn",
      "outputs": [],
      "stateMutability": "nonpayable",
      "type": "function"
    },
    {
      "inputs": [
        {
          "internalType": "bytes4",
          "name": "interfaceId",
          "type": "bytes4"
        }
      ],
      "name": "supportsInterface",
      "outputs": [
        {
          "internalType": "bool",
          "name": "",
          "type": "bool"
        }
      ],
      "stateMutability": "pure",
      "type": "function",
      "constant": true
    }
  ],
  "bytecode": "0x60806040523480156200001157600080fd5b506040516200451c3803806200451c833981810160405281019062000037919062000133565b826000806101000a81548173ffffffffffffffffffffffffffffffffffffffff021916908373ffffffffffffffffffffffffffffffffffffffff1602179055508160098190555080600a819055505050506200018f565b600080fd5b600073ffffffffffffffffffffffffffffffffffffffff82169050919050565b6000620000c08262000093565b9050919050565b620000d281620000b3565b8114620000de57600080fd5b50565b600081519050620000f281620000c7565b92915050565b6000819050919050565b6200010d81620000f8565b81146200011957600080fd5b50565b6000815190506200012d8162000102565b92915050565b6000806000606084860312156200014f576200014e6200008e565b5b60006200015f86828701620000e1565b935050602062000172868287016200011c565b925050604062000185868287016200011c565b9150509250925092565b61437d806200019f6000396000f3fe60806040526004361061014b5760003560e01c80635a884bf5116100b6578063a22cb4651161006f578063a22cb46514610493578063a7f93ebd146104bc578063b88d4fde146104e7578063e985e9c514610510578063ea771eef1461054d578063f4a0a528146105765761014b565b80635a884bf5146103735780636352211e1461039c57806370a08231146103d957806387326264146104165780638cabe05a1461043f5780639652dbe31461046a5761014b565b80632a55205a116101085780632a55205a146102615780632e7031301461029f5780633bb3a24d146102bb57806342842e0e146102f857806342966c681461032157806355f804b31461034a5761014b565b806301ffc9a714610150578063081812fc1461018d578063095ea7b3146101ca5780630caceeb6146101f357806323b872dd1461021c5780632570b89b14610245575b600080fd5b34801561015c57600080fd5b5061017760048036038101906101729190612981565b61059f565b60405161018491906129c9565b60405180910390f35b34801561019957600080fd5b506101b460048036038101906101af9190612a1a565b6106d9565b6040516101c19190612a88565b60405180910390f35b3480156101d657600080fd5b506101f160048036038101906101ec9190612acf565b6107b8565b005b3480156101ff57600080fd5b5061021a60048036038101906102159190612a1a565b610a02565b005b34801561022857600080fd5b50610243600480360381019061023e9190612b0f565b610ade565b005b61025f600480360381019061025a9190612ca8565b610b37565b005b34801561026d57600080fd5b5061028860048036038101906102839190612cf1565b610bae565b604051610296929190612d40565b60405180910390f35b6102b960048036038101906102b49190612da7565b610c61565b005b3480156102c757600080fd5b506102e260048036038101906102dd9190612a1a565b610e5f565b6040516102ef9190612eb2565b60405180910390f35b34801561030457600080fd5b5061031f600480360381019061031a9190612b0f565b610e71565b005b34801561032d57600080fd5b5061034860048036038101906103439190612a1a565b61107b565b005b34801561035657600080fd5b50610371600480360381019061036c9190612ca8565b611087565b005b34801561037f57600080fd5b5061039a60048036038101906103959190612ed4565b61112f565b005b3480156103a857600080fd5b506103c360048036038101906103be9190612a1a565b6111cd565b6040516103d09190612a88565b60405180910390f35b3480156103e557600080fd5b5061040060048036038101906103fb9190612f27565b61127f565b60405161040d9190612f54565b60405180910390f35b34801561042257600080fd5b5061043d60048036038101906104389190612f6f565b611337565b005b34801561044b57600080fd5b50610454611432565b6040516104619190612f54565b60405180910390f35b34801561047657600080fd5b50610491600480360381019061048c919061321b565b61143c565b005b34801561049f57600080fd5b506104ba60048036038101906104b5919061331e565b611620565b005b3480156104c857600080fd5b506104d161162e565b6040516104de9190612f54565b60405180910390f35b3480156104f357600080fd5b5061050e600480360381019061050991906133ff565b611638565b005b34801561051c57600080fd5b5061053760048036038101906105329190613482565b611834565b60405161054491906129c9565b60405180910390f35b34801561055957600080fd5b50610574600480360381019061056f91906134c2565b6118c8565b005b34801561058257600080fd5b5061059d60048036038101906105989190612a1a565b6119a2565b005b60007fbb1ffa80000000000000000000000000000000000000000000000000000000007bffffffffffffffffffffffffffffffffffffffffffffffffffffffff1916827bffffffffffffffffffffffffffffffffffffffffffffffffffffffff1916148061066a57507f2a55205a000000000000000000000000000000000000000000000000000000007bffffffffffffffffffffffffffffffffffffffffffffffffffffffff1916827bffffffffffffffffffffffffffffffffffffffffffffffffffffffff1916145b806106d257507f01ffc9a7000000000000000000000000000000000000000000000000000000007bffffffffffffffffffffffffffffffffffffffffffffffffffffffff1916827bffffffffffffffffffffffffffffffffffffffffffffffffffffffff1916145b9050919050565b60008073ffffffffffffffffffffffffffffffffffffffff166001600084815260200190815260200160002060009054906101000a900473ffffffffffffffffffffffffffffffffffffffff1673ffffffffffffffffffffffffffffffffffffffff16141561077d576040517f08c379a0000000000000000000000000000000000000000000000000000000008152600401610774906135b7565b60405180910390fd5b6003600083815260200190815260200160002060009054906101000a900473ffffffffffffffffffffffffffffffffffffffff169050919050565b60006001600083815260200190815260200160002060009054906101000a900473ffffffffffffffffffffffffffffffffffffffff1690508273ffffffffffffffffffffffffffffffffffffffff168173ffffffffffffffffffffffffffffffffffffffff16141561085f576040517f08c379a000000000000000000000000000000000000000000000000000000000815260040161085690613623565b60405180910390fd5b8073ffffffffffffffffffffffffffffffffffffffff163373ffffffffffffffffffffffffffffffffffffffff16148061091157503073ffffffffffffffffffffffffffffffffffffffff1663e985e9c582856040518363ffffffff1660e01b81526004016108cf929190613643565b602060405180830381865afa1580156108ec573d6000803e3d6000fd5b505050506040513d601f19601f820116820180604052508101906109109190613681565b5b610950576040517f08c379a000000000000000000000000000000000000000000000000000000000815260040161094790613720565b60405180910390fd5b826003600084815260200190815260200160002060006101000a81548173ffffffffffffffffffffffffffffffffffffffff021916908373ffffffffffffffffffffffffffffffffffffffff160217905550818373ffffffffffffffffffffffffffffffffffffffff168273ffffffffffffffffffffffffffffffffffffffff167f8c5be1e5ebec7d5bd14f71427d1e84f3dd0314c0f7b2291e5b200ac8c7c3b92560405160405180910390a4505050565b60008054906101000a900473ffffffffffffffffffffffffffffffffffffffff1673ffffffffffffffffffffffffffffffffffffffff163373ffffffffffffffffffffffffffffffffffffffff1614610a90576040517f08c379a0000000000000000000000000000000000000000000000000000000008152600401610a879061378c565b60405180910390fd5b6127108110610ad4576040517f08c379a0000000000000000000000000000000000000000000000000000000008152600401610acb9061381e565b60405180910390fd5b80600a8190555050565b610ae83382611a3a565b610b27576040517f08c379a0000000000000000000000000000000000000000000000000000000008152600401610b1e906138b0565b60405180910390fd5b610b32838383611c23565b505050565b6009543414610b7b576040517f08c379a0000000000000000000000000000000000000000000000000000000008152600401610b729061391c565b60405180910390fd5b6000610b85611d83565b9050610b913382611dbb565b610b9d81836000611fd6565b610baa8133600a54612045565b5050565b6000806000600b60008681526020019081526020016000206040518060400160405290816000820160009054906101000a900473ffffffffffffffffffffffffffffffffffffffff1673ffffffffffffffffffffffffffffffffffffffff1673ffffffffffffffffffffffffffffffffffffffff168152602001600182015481525050905080600001519250612710816020015185610c4d919061396b565b610c5791906139f4565b9150509250929050565b6009543414610ca5576040517f08c379a0000000000000000000000000000000000000000000000000000000008152600401610c9c9061391c565b60405180910390fd5b600660008473ffffffffffffffffffffffffffffffffffffffff1673ffffffffffffffffffffffffffffffffffffffff168152602001908152602001600020600083815260200190815260200160002060009054906101000a900460ff16610d42576040517f08c379a0000000000000000000000000000000000000000000000000000000008152600401610d3990613a97565b60405180910390fd5b8373ffffffffffffffffffffffffffffffffffffffff168373ffffffffffffffffffffffffffffffffffffffff16636352211e846040518263ffffffff1660e01b8152600401610d929190612f54565b602060405180830381865afa158015610daf573d6000803e3d6000fd5b505050506040513d601f19601f82011682018060405250810190610dd39190613acc565b73ffffffffffffffffffffffffffffffffffffffff1614610e29576040517f08c379a0000000000000000000000000000000000000000000000000000000008152600401610e2090613b6b565b60405180910390fd5b6000610e33611d83565b9050610e3f8582611dbb565b610e4b81836000611fd6565b610e588133600a54612045565b5050505050565b6060610e6a82612121565b9050919050565b610e7b3382611a3a565b610eba576040517f08c379a0000000000000000000000000000000000000000000000000000000008152600401610eb190613bfd565b60405180910390fd5b3073ffffffffffffffffffffffffffffffffffffffff16636352211e826040518263ffffffff1660e01b8152600401610ef39190612f54565b602060405180830381865afa158015610f10573d6000803e3d6000fd5b505050506040513d601f19601f82011682018060405250810190610f349190613acc565b73ffffffffffffffffffffffffffffffffffffffff168373ffffffffffffffffffffffffffffffffffffffff1614610fa1576040517f08c379a0000000000000000000000000000000000000000000000000000000008152600401610f9890613c69565b60405180910390fd5b600073ffffffffffffffffffffffffffffffffffffffff168273ffffffffffffffffffffffffffffffffffffffff161415611011576040517f08c379a000000000000000000000000000000000000000000000000000000000815260040161100890613cd5565b60405180910390fd5b61101c838383611c23565b6110378383836040518060200160405280600081525061223f565b611076576040517f08c379a000000000000000000000000000000000000000000000000000000000815260040161106d90613d67565b60405180910390fd5b505050565b611084816123bb565b50565b60008054906101000a900473ffffffffffffffffffffffffffffffffffffffff1673ffffffffffffffffffffffffffffffffffffffff163373ffffffffffffffffffffffffffffffffffffffff1614611115576040517f08c379a000000000000000000000000000000000000000000000000000000000815260040161110c9061378c565b60405180910390fd5b806007908051906020019061112b929190612872565b5050565b60008054906101000a900473ffffffffffffffffffffffffffffffffffffffff1673ffffffffffffffffffffffffffffffffffffffff163373ffffffffffffffffffffffffffffffffffffffff16146111bd576040517f08c379a00000000000000000000000000000000000000000000000000000000081526004016111b49061378c565b60405180910390fd5b6111c8838383612045565b505050565b6000806001600084815260200190815260200160002060009054906101000a900473ffffffffffffffffffffffffffffffffffffffff169050600073ffffffffffffffffffffffffffffffffffffffff168173ffffffffffffffffffffffffffffffffffffffff161415611276576040517f08c379a000000000000000000000000000000000000000000000000000000000815260040161126d90613dd3565b60405180910390fd5b80915050919050565b60008073ffffffffffffffffffffffffffffffffffffffff168273ffffffffffffffffffffffffffffffffffffffff1614156112f0576040517f08c379a00000000000000000000000000000000000000000000000000000000081526004016112e790613e65565b60405180910390fd5b600260008373ffffffffffffffffffffffffffffffffffffffff1673ffffffffffffffffffffffffffffffffffffffff168152602001908152602001600020549050919050565b60008054906101000a900473ffffffffffffffffffffffffffffffffffffffff1673ffffffffffffffffffffffffffffffffffffffff163373ffffffffffffffffffffffffffffffffffffffff16146113c5576040517f08c379a00000000000000000000000000000000000000000000000000000000081526004016113bc9061378c565b60405180910390fd5b6001600660008473ffffffffffffffffffffffffffffffffffffffff1673ffffffffffffffffffffffffffffffffffffffff168152602001908152602001600020600083815260200190815260200160002060006101000a81548160ff0219169083151502179055505050565b6000600a54905090565b60008054906101000a900473ffffffffffffffffffffffffffffffffffffffff1673ffffffffffffffffffffffffffffffffffffffff163373ffffffffffffffffffffffffffffffffffffffff16146114ca576040517f08c379a00000000000000000000000000000000000000000000000000000000081526004016114c19061378c565b60405180910390fd5b60005b8451811015611619576115148582815181106114ec576114eb613e85565b5b602002602001015185838151811061150757611506613e85565b5b6020026020010151611dbb565b61155484828151811061152a57611529613e85565b5b602002602001015184838151811061154557611544613e85565b5b60200260200101516001611fd6565b6115ad84828151811061156a57611569613e85565b5b602002602001015186838151811061158557611584613e85565b5b60200260200101518484815181106115a05761159f613e85565b5b6020026020010151612045565b6115fd60008683815181106115c5576115c4613e85565b5b60200260200101518684815181106115e0576115df613e85565b5b60200260200101516040518060200160405280600081525061223f565b61160657600080fd5b808061161190613eb4565b9150506114cd565b5050505050565b61162a8282612602565b5050565b6000600954905090565b6116423383611a3a565b611681576040517f08c379a000000000000000000000000000000000000000000000000000000000815260040161167890613bfd565b60405180910390fd5b3073ffffffffffffffffffffffffffffffffffffffff16636352211e836040518263ffffffff1660e01b81526004016116ba9190612f54565b602060405180830381865afa1580156116d7573d6000803e3d6000fd5b505050506040513d601f19601f820116820180604052508101906116fb9190613acc565b73ffffffffffffffffffffffffffffffffffffffff168473ffffffffffffffffffffffffffffffffffffffff1614611768576040517f08c379a000000000000000000000000000000000000000000000000000000000815260040161175f90613c69565b60405180910390fd5b600073ffffffffffffffffffffffffffffffffffffffff168373ffffffffffffffffffffffffffffffffffffffff1614156117d8576040517f08c379a00000000000000000000000000000000000000000000000000000000081526004016117cf90613cd5565b60405180910390fd5b6117e3848484611c23565b6117ef8484848461223f565b61182e576040517f08c379a000000000000000000000000000000000000000000000000000000000815260040161182590613d67565b60405180910390fd5b50505050565b6000600460008473ffffffffffffffffffffffffffffffffffffffff1673ffffffffffffffffffffffffffffffffffffffff16815260200190815260200160002060008373ffffffffffffffffffffffffffffffffffffffff1673ffffffffffffffffffffffffffffffffffffffff16815260200190815260200160002060009054906101000a900460ff16905092915050565b60008054906101000a900473ffffffffffffffffffffffffffffffffffffffff1673ffffffffffffffffffffffffffffffffffffffff163373ffffffffffffffffffffffffffffffffffffffff1614611956576040517f08c379a000000000000000000000000000000000000000000000000000000000815260040161194d9061378c565b60405180910390fd5b6119608484611dbb565b61196c83836001611fd6565b611977838583612045565b611993600085856040518060200160405280600081525061223f565b61199c57600080fd5b50505050565b60008054906101000a900473ffffffffffffffffffffffffffffffffffffffff1673ffffffffffffffffffffffffffffffffffffffff163373ffffffffffffffffffffffffffffffffffffffff1614611a30576040517f08c379a0000000000000000000000000000000000000000000000000000000008152600401611a279061378c565b60405180910390fd5b8060098190555050565b6000803073ffffffffffffffffffffffffffffffffffffffff16636352211e846040518263ffffffff1660e01b8152600401611a769190612f54565b602060405180830381865afa158015611a93573d6000803e3d6000fd5b505050506040513d601f19601f82011682018060405250810190611ab79190613acc565b90508073ffffffffffffffffffffffffffffffffffffffff168473ffffffffffffffffffffffffffffffffffffffff161480611b9757503073ffffffffffffffffffffffffffffffffffffffff1663081812fc846040518263ffffffff1660e01b8152600401611b279190612f54565b602060405180830381865afa158015611b44573d6000803e3d6000fd5b505050506040513d601f19601f82011682018060405250810190611b689190613acc565b73ffffffffffffffffffffffffffffffffffffffff168473ffffffffffffffffffffffffffffffffffffffff16145b80611c1a57503073ffffffffffffffffffffffffffffffffffffffff1663e985e9c582866040518363ffffffff1660e01b8152600401611bd8929190613643565b602060405180830381865afa158015611bf5573d6000803e3d6000fd5b505050506040513d601f19601f82011682018060405250810190611c199190613681565b5b91505092915050565b6001600260008573ffffffffffffffffffffffffffffffffffffffff1673ffffffffffffffffffffffffffffffffffffffff1681526020019081526020016000206000828254611c739190613efd565b925050819055506001600260008473ffffffffffffffffffffffffffffffffffffffff1673ffffffffffffffffffffffffffffffffffffffff1681526020019081526020016000206000828254611cca9190613f31565b92505081905550816001600083815260200190815260200160002060006101000a81548173ffffffffffffffffffffffffffffffffffffffff021916908373ffffffffffffffffffffffffffffffffffffffff160217905550808273ffffffffffffffffffffffffffffffffffffffff168473ffffffffffffffffffffffffffffffffffffffff167fddf252ad1be2c89b69c2b068fc378daa952ba7f163c4a11628f55a4df523b3ef60405160405180910390a4505050565b60005b611d91600854612774565b15611db35760086000815480929190611da990613eb4565b9190505550611d86565b600854905090565b600073ffffffffffffffffffffffffffffffffffffffff168273ffffffffffffffffffffffffffffffffffffffff161415611e2b576040517f08c379a0000000000000000000000000000000000000000000000000000000008152600401611e2290613fd3565b60405180910390fd5b600073ffffffffffffffffffffffffffffffffffffffff166001600083815260200190815260200160002060009054906101000a900473ffffffffffffffffffffffffffffffffffffffff1673ffffffffffffffffffffffffffffffffffffffff1614611ecd576040517f08c379a0000000000000000000000000000000000000000000000000000000008152600401611ec49061403f565b60405180910390fd5b6001600260008473ffffffffffffffffffffffffffffffffffffffff1673ffffffffffffffffffffffffffffffffffffffff1681526020019081526020016000206000828254611f1d9190613f31565b92505081905550816001600083815260200190815260200160002060006101000a81548173ffffffffffffffffffffffffffffffffffffffff021916908373ffffffffffffffffffffffffffffffffffffffff160217905550808273ffffffffffffffffffffffffffffffffffffffff16600073ffffffffffffffffffffffffffffffffffffffff167fddf252ad1be2c89b69c2b068fc378daa952ba7f163c4a11628f55a4df523b3ef60405160405180910390a45050565b604051806040016040528083815260200182151581525060056000858152602001908152602001600020600082015181600001908051906020019061201c929190612872565b5060208201518160010160006101000a81548160ff021916908315150217905550905050505050565b61271081111561208a576040517f08c379a0000000000000000000000000000000000000000000000000000000008152600401612081906140ab565b60405180910390fd5b60405180604001604052808373ffffffffffffffffffffffffffffffffffffffff16815260200182815250600b600085815260200190815260200160002060008201518160000160006101000a81548173ffffffffffffffffffffffffffffffffffffffff021916908373ffffffffffffffffffffffffffffffffffffffff16021790555060208201518160010155905050505050565b6060600060056000848152602001908152602001600020604051806040016040529081600082018054612153906140fa565b80601f016020809104026020016040519081016040528092919081815260200182805461217f906140fa565b80156121cc5780601f106121a1576101008083540402835291602001916121cc565b820191906000526020600020905b8154815290600101906020018083116121af57829003601f168201915b505050505081526020016001820160009054906101000a900460ff1615151515815250509050806020015115612231576122046127e0565b816000015160405160200161221a929190614168565b60405160208183030381529060405291505061223a565b80600001519150505b919050565b6000808473ffffffffffffffffffffffffffffffffffffffff163b11156123ae578373ffffffffffffffffffffffffffffffffffffffff1663150b7a02338786866040518563ffffffff1660e01b815260040161229f94939291906141e1565b6020604051808303816000875af19250505080156122db57506040513d601f19601f820116820180604052508101906122d89190614242565b60015b61235e573d806000811461230b576040519150601f19603f3d011682016040523d82523d6000602084013e612310565b606091505b50600081511415612356576040517f08c379a000000000000000000000000000000000000000000000000000000000815260040161234d90613d67565b60405180910390fd5b805181602001fd5b63150b7a0260e01b7bffffffffffffffffffffffffffffffffffffffffffffffffffffffff1916817bffffffffffffffffffffffffffffffffffffffffffffffffffffffff1916149150506123b3565b600190505b949350505050565b60003073ffffffffffffffffffffffffffffffffffffffff16636352211e836040518263ffffffff1660e01b81526004016123f69190612f54565b602060405180830381865afa158015612413573d6000803e3d6000fd5b505050506040513d601f19601f820116820180604052508101906124379190613acc565b90508073ffffffffffffffffffffffffffffffffffffffff163373ffffffffffffffffffffffffffffffffffffffff16146124a7576040517f08c379a000000000000000000000000000000000000000000000000000000000815260040161249e906142bb565b60405180910390fd5b3073ffffffffffffffffffffffffffffffffffffffff1663095ea7b36000846040518363ffffffff1660e01b81526004016124e3929190612d40565b600060405180830381600087803b1580156124fd57600080fd5b505af1158015612511573d6000803e3d6000fd5b505050506001600260008373ffffffffffffffffffffffffffffffffffffffff1673ffffffffffffffffffffffffffffffffffffffff16815260200190815260200160002060008282546125659190613efd565b925050819055506001600083815260200190815260200160002060006101000a81549073ffffffffffffffffffffffffffffffffffffffff021916905581600073ffffffffffffffffffffffffffffffffffffffff168273ffffffffffffffffffffffffffffffffffffffff167fddf252ad1be2c89b69c2b068fc378daa952ba7f163c4a11628f55a4df523b3ef60405160405180910390a45050565b60003390508273ffffffffffffffffffffffffffffffffffffffff168173ffffffffffffffffffffffffffffffffffffffff161415612676576040517f08c379a000000000000000000000000000000000000000000000000000000000815260040161266d90614327565b60405180910390fd5b81600460008373ffffffffffffffffffffffffffffffffffffffff1673ffffffffffffffffffffffffffffffffffffffff16815260200190815260200160002060008573ffffffffffffffffffffffffffffffffffffffff1673ffffffffffffffffffffffffffffffffffffffff16815260200190815260200160002060006101000a81548160ff0219169083151502179055508273ffffffffffffffffffffffffffffffffffffffff168173ffffffffffffffffffffffffffffffffffffffff167f17307eab39ab6107e8899845ad3d59bd9653f200f220920489ca2b5937696c318460405161276791906129c9565b60405180910390a3505050565b60008073ffffffffffffffffffffffffffffffffffffffff166001600084815260200190815260200160002060009054906101000a900473ffffffffffffffffffffffffffffffffffffffff1673ffffffffffffffffffffffffffffffffffffffff1614159050919050565b6060600780546127ef906140fa565b80601f016020809104026020016040519081016040528092919081815260200182805461281b906140fa565b80156128685780601f1061283d57610100808354040283529160200191612868565b820191906000526020600020905b81548152906001019060200180831161284b57829003601f168201915b5050505050905090565b82805461287e906140fa565b90600052602060002090601f0160209004810192826128a057600085556128e7565b82601f106128b957805160ff19168380011785556128e7565b828001600101855582156128e7579182015b828111156128e65782518255916020019190600101906128cb565b5b5090506128f491906128f8565b5090565b5b808211156129115760008160009055506001016128f9565b5090565b6000604051905090565b600080fd5b600080fd5b60007fffffffff0000000000000000000000000000000000000000000000000000000082169050919050565b61295e81612929565b811461296957600080fd5b50565b60008135905061297b81612955565b92915050565b6000602082840312156129975761299661291f565b5b60006129a58482850161296c565b91505092915050565b60008115159050919050565b6129c3816129ae565b82525050565b60006020820190506129de60008301846129ba565b92915050565b6000819050919050565b6129f7816129e4565b8114612a0257600080fd5b50565b600081359050612a14816129ee565b92915050565b600060208284031215612a3057612a2f61291f565b5b6000612a3e84828501612a05565b91505092915050565b600073ffffffffffffffffffffffffffffffffffffffff82169050919050565b6000612a7282612a47565b9050919050565b612a8281612a67565b82525050565b6000602082019050612a9d6000830184612a79565b92915050565b612aac81612a67565b8114612ab757600080fd5b50565b600081359050612ac981612aa3565b92915050565b60008060408385031215612ae657612ae561291f565b5b6000612af485828601612aba565b9250506020612b0585828601612a05565b9150509250929050565b600080600060608486031215612b2857612b2761291f565b5b6000612b3686828701612aba565b9350506020612b4786828701612aba565b9250506040612b5886828701612a05565b9150509250925092565b600080fd5b600080fd5b6000601f19601f8301169050919050565b7f4e487b7100000000000000000000000000000000000000000000000000000000600052604160045260246000fd5b612bb582612b6c565b810181811067ffffffffffffffff82111715612bd457612bd3612b7d565b5b80604052505050565b6000612be7612915565b9050612bf38282612bac565b919050565b600067ffffffffffffffff821115612c1357612c12612b7d565b5b612c1c82612b6c565b9050602081019050919050565b82818337600083830152505050565b6000612c4b612c4684612bf8565b612bdd565b905082815260208101848484011115612c6757612c66612b67565b5b612c72848285612c29565b509392505050565b600082601f830112612c8f57612c8e612b62565b5b8135612c9f848260208601612c38565b91505092915050565b600060208284031215612cbe57612cbd61291f565b5b600082013567ffffffffffffffff811115612cdc57612cdb612924565b5b612ce884828501612c7a565b91505092915050565b60008060408385031215612d0857612d0761291f565b5b6000612d1685828601612a05565b9250506020612d2785828601612a05565b9150509250929050565b612d3a816129e4565b82525050565b6000604082019050612d556000830185612a79565b612d626020830184612d31565b9392505050565b6000612d7482612a67565b9050919050565b612d8481612d69565b8114612d8f57600080fd5b50565b600081359050612da181612d7b565b92915050565b60008060008060808587031215612dc157612dc061291f565b5b6000612dcf87828801612aba565b9450506020612de087828801612d92565b9350506040612df187828801612a05565b925050606085013567ffffffffffffffff811115612e1257612e11612924565b5b612e1e87828801612c7a565b91505092959194509250565b600081519050919050565b600082825260208201905092915050565b60005b83811015612e64578082015181840152602081019050612e49565b83811115612e73576000848401525b50505050565b6000612e8482612e2a565b612e8e8185612e35565b9350612e9e818560208601612e46565b612ea781612b6c565b840191505092915050565b60006020820190508181036000830152612ecc8184612e79565b905092915050565b600080600060608486031215612eed57612eec61291f565b5b6000612efb86828701612a05565b9350506020612f0c86828701612aba565b9250506040612f1d86828701612a05565b9150509250925092565b600060208284031215612f3d57612f3c61291f565b5b6000612f4b84828501612aba565b91505092915050565b6000602082019050612f696000830184612d31565b92915050565b60008060408385031215612f8657612f8561291f565b5b6000612f9485828601612d92565b9250506020612fa585828601612a05565b9150509250929050565b600067ffffffffffffffff821115612fca57612fc9612b7d565b5b602082029050602081019050919050565b600080fd5b6000612ff3612fee84612faf565b612bdd565b9050808382526020820190506020840283018581111561301657613015612fdb565b5b835b8181101561303f578061302b8882612aba565b845260208401935050602081019050613018565b5050509392505050565b600082601f83011261305e5761305d612b62565b5b813561306e848260208601612fe0565b91505092915050565b600067ffffffffffffffff82111561309257613091612b7d565b5b602082029050602081019050919050565b60006130b66130b184613077565b612bdd565b905080838252602082019050602084028301858111156130d9576130d8612fdb565b5b835b8181101561310257806130ee8882612a05565b8452602084019350506020810190506130db565b5050509392505050565b600082601f83011261312157613120612b62565b5b81356131318482602086016130a3565b91505092915050565b600067ffffffffffffffff82111561315557613154612b7d565b5b602082029050602081019050919050565b60006131796131748461313a565b612bdd565b9050808382526020820190506020840283018581111561319c5761319b612fdb565b5b835b818110156131e357803567ffffffffffffffff8111156131c1576131c0612b62565b5b8086016131ce8982612c7a565b8552602085019450505060208101905061319e565b5050509392505050565b600082601f83011261320257613201612b62565b5b8135613212848260208601613166565b91505092915050565b600080600080608085870312156132355761323461291f565b5b600085013567ffffffffffffffff81111561325357613252612924565b5b61325f87828801613049565b945050602085013567ffffffffffffffff8111156132805761327f612924565b5b61328c8782880161310c565b935050604085013567ffffffffffffffff8111156132ad576132ac612924565b5b6132b9878288016131ed565b925050606085013567ffffffffffffffff8111156132da576132d9612924565b5b6132e68782880161310c565b91505092959194509250565b6132fb816129ae565b811461330657600080fd5b50565b600081359050613318816132f2565b92915050565b600080604083850312156133355761333461291f565b5b600061334385828601612aba565b925050602061335485828601613309565b9150509250929050565b600067ffffffffffffffff82111561337957613378612b7d565b5b61338282612b6c565b9050602081019050919050565b60006133a261339d8461335e565b612bdd565b9050828152602081018484840111156133be576133bd612b67565b5b6133c9848285612c29565b509392505050565b600082601f8301126133e6576133e5612b62565b5b81356133f684826020860161338f565b91505092915050565b600080600080608085870312156134195761341861291f565b5b600061342787828801612aba565b945050602061343887828801612aba565b935050604061344987828801612a05565b925050606085013567ffffffffffffffff81111561346a57613469612924565b5b613476878288016133d1565b91505092959194509250565b600080604083850312156134995761349861291f565b5b60006134a785828601612aba565b92505060206134b885828601612aba565b9150509250929050565b600080600080608085870312156134dc576134db61291f565b5b60006134ea87828801612aba565b94505060206134fb87828801612a05565b935050604085013567ffffffffffffffff81111561351c5761351b612924565b5b61352887828801612c7a565b925050606061353987828801612a05565b91505092959194509250565b7f6170706f76656420717565727920666f72206e6f6e6578697374656e7420746f60008201527f6b656e0000000000000000000000000000000000000000000000000000000000602082015250565b60006135a1602383612e35565b91506135ac82613545565b604082019050919050565b600060208201905081810360008301526135d081613594565b9050919050565b7f617070726f76616c20746f2063757272656e74206f776e657200000000000000600082015250565b600061360d601983612e35565b9150613618826135d7565b602082019050919050565b6000602082019050818103600083015261363c81613600565b9050919050565b60006040820190506136586000830185612a79565b6136656020830184612a79565b9392505050565b60008151905061367b816132f2565b92915050565b6000602082840312156136975761369661291f565b5b60006136a58482850161366c565b91505092915050565b7f617070726f76652063616c6c6572206973206e6f74206f776e6572206f72206160008201527f70706f76656420666f7220616c6c000000000000000000000000000000000000602082015250565b600061370a602e83612e35565b9150613715826136ae565b604082019050919050565b60006020820190508181036000830152613739816136fd565b9050919050565b7f6f6e6c792061646d696e2063616e20646f207468697300000000000000000000600082015250565b6000613776601683612e35565b915061378182613740565b602082019050919050565b600060208201905081810360008301526137a581613769565b9050919050565b7f54686520726f79616c74792063616e27742062652031303025206f72206d6f7260008201527f6500000000000000000000000000000000000000000000000000000000000000602082015250565b6000613808602183612e35565b9150613813826137ac565b604082019050919050565b60006020820190508181036000830152613837816137fb565b9050919050565b7f4552433732313a207472616e736665722063616c6c6572206973206e6f74206f60008201527f776e6572206e6f7220617070726f766564000000000000000000000000000000602082015250565b600061389a603183612e35565b91506138a58261383e565b604082019050919050565b600060208201905081810360008301526138c98161388d565b9050919050565b7f4e6f7420656e6f7567682076616c756520666f72206d696e7420746f6b656e2e600082015250565b6000613906602083612e35565b9150613911826138d0565b602082019050919050565b60006020820190508181036000830152613935816138f9565b9050919050565b7f4e487b7100000000000000000000000000000000000000000000000000000000600052601160045260246000fd5b6000613976826129e4565b9150613981836129e4565b9250817fffffffffffffffffffffffffffffffffffffffffffffffffffffffffffffffff04831182151516156139ba576139b961393c565b5b828202905092915050565b7f4e487b7100000000000000000000000000000000000000000000000000000000600052601260045260246000fd5b60006139ff826129e4565b9150613a0a836129e4565b925082613a1a57613a196139c5565b5b828204905092915050565b7f5468697320746f6b656e20646f6573206e6f7420616c6c6f7720746f206d696e60008201527f7420686572650000000000000000000000000000000000000000000000000000602082015250565b6000613a81602683612e35565b9150613a8c82613a25565b604082019050919050565b60006020820190508181036000830152613ab081613a74565b9050919050565b600081519050613ac681612aa3565b92915050565b600060208284031215613ae257613ae161291f565b5b6000613af084828501613ab7565b91505092915050565b7f596f75206861766520746f206265206f776e6572206f6620726571756972656460008201527f20746f6b656e0000000000000000000000000000000000000000000000000000602082015250565b6000613b55602683612e35565b9150613b6082613af9565b604082019050919050565b60006020820190508181036000830152613b8481613b48565b9050919050565b7f5472616e736665722063616c6c6572206973206e6f74206f776e6572206f722060008201527f617070726f766564000000000000000000000000000000000000000000000000602082015250565b6000613be7602883612e35565b9150613bf282613b8b565b604082019050919050565b60006020820190508181036000830152613c1681613bda565b9050919050565b7f7472616e736665722066726f6d20696e636f7272656374206f776e6572000000600082015250565b6000613c53601d83612e35565b9150613c5e82613c1d565b602082019050919050565b60006020820190508181036000830152613c8281613c46565b9050919050565b7f7472616e7366657220746f207a65726f20616464726573730000000000000000600082015250565b6000613cbf601883612e35565b9150613cca82613c89565b602082019050919050565b60006020820190508181036000830152613cee81613cb2565b9050919050565b7f4552433732313a207472616e7366657220746f206e6f6e20455243373231526560008201527f63656976657220696d706c656d656e7465720000000000000000000000000000602082015250565b6000613d51603283612e35565b9150613d5c82613cf5565b604082019050919050565b60006020820190508181036000830152613d8081613d44565b9050919050565b7f4f776e657220717565727920666f7220746865207a65726f2061646472657373600082015250565b6000613dbd602083612e35565b9150613dc882613d87565b602082019050919050565b60006020820190508181036000830152613dec81613db0565b9050919050565b7f42616c616e636520717565727920666f7220746865207a65726f20616464726560008201527f7373000000000000000000000000000000000000000000000000000000000000602082015250565b6000613e4f602283612e35565b9150613e5a82613df3565b604082019050919050565b60006020820190508181036000830152613e7e81613e42565b9050919050565b7f4e487b7100000000000000000000000000000000000000000000000000000000600052603260045260246000fd5b6000613ebf826129e4565b91507fffffffffffffffffffffffffffffffffffffffffffffffffffffffffffffffff821415613ef257613ef161393c565b5b600182019050919050565b6000613f08826129e4565b9150613f13836129e4565b925082821015613f2657613f2561393c565b5b828203905092915050565b6000613f3c826129e4565b9150613f47836129e4565b9250827fffffffffffffffffffffffffffffffffffffffffffffffffffffffffffffffff03821115613f7c57613f7b61393c565b5b828201905092915050565b7f6d696e7420746f207a65726f2061646472657373000000000000000000000000600082015250565b6000613fbd601483612e35565b9150613fc882613f87565b602082019050919050565b60006020820190508181036000830152613fec81613fb0565b9050919050565b7f746f6b656e20616c7265616479206d696e746564000000000000000000000000600082015250565b6000614029601483612e35565b915061403482613ff3565b602082019050919050565b600060208201905081810360008301526140588161401c565b9050919050565b7f526f79616c7469657320746f6f20686967680000000000000000000000000000600082015250565b6000614095601283612e35565b91506140a08261405f565b602082019050919050565b600060208201905081810360008301526140c481614088565b9050919050565b7f4e487b7100000000000000000000000000000000000000000000000000000000600052602260045260246000fd5b6000600282049050600182168061411257607f821691505b60208210811415614126576141256140cb565b5b50919050565b600081905092915050565b600061414282612e2a565b61414c818561412c565b935061415c818560208601612e46565b80840191505092915050565b60006141748285614137565b91506141808284614137565b91508190509392505050565b600081519050919050565b600082825260208201905092915050565b60006141b38261418c565b6141bd8185614197565b93506141cd818560208601612e46565b6141d681612b6c565b840191505092915050565b60006080820190506141f66000830187612a79565b6142036020830186612a79565b6142106040830185612d31565b818103606083015261422281846141a8565b905095945050505050565b60008151905061423c81612955565b92915050565b6000602082840312156142585761425761291f565b5b60006142668482850161422d565b91505092915050565b7f4f6e6c79206f776e65722063616e206275726e20746f6b656e00000000000000600082015250565b60006142a5601983612e35565b91506142b08261426f565b602082019050919050565b600060208201905081810360008301526142d481614298565b9050919050565b7f617070726f766520746f2063616c6c6572000000000000000000000000000000600082015250565b6000614311601183612e35565b915061431c826142db565b602082019050919050565b6000602082019050818103600083015261434081614304565b905091905056fea2646970667358221220ed61e8f3c054525872130af20176ec198be806c9d1c5f2b02e229c4fe3260e5064736f6c634300080a0033",
  "immutableReferences": {},
  "source": "// SPDX-License-Identifier: MIT\npragma solidity ^0.8.0;\n\nimport \"./NFT_Base.sol\";\nimport \"./NFT_mint.sol\";\n\ncontract NFT is NFT_Base, NFT_Mint {\n    constructor(address payable admin, uint256 mintPrice, uint256 defaultRoyalty) {\n        _admin = admin;\n        _mintPrice = mintPrice;\n        _defaultRoyalty = defaultRoyalty;\n    }\n\n    function setBaseURI(string memory baseUri) external onlyAdmin {\n        _baseURI = baseUri;\n    }\n\n    function getTokenURI(uint256 _tokenId) external view override returns (string memory) {\n        return _getTokenURI(_tokenId);\n    }\n\n    function setDefaultRoyalty(uint256 value) external onlyAdmin {\n        require(value < 10000, \"The royalty can't be 100% or more\");\n        _defaultRoyalty = value;\n    }\n\n    function getDefaultRoyalty() external view returns (uint256 defaultRoyalty) {\n        return _defaultRoyalty;\n    }\n\n     function changeTokenRoyaly(\n        uint256 tokenId,\n        address receiver,\n        uint256 value\n    ) external onlyAdmin {\n        _setTokenRoyalty(tokenId, receiver, value);\n    }\n\n    function burn(uint256 tokenId) external {\n        _burn(tokenId);\n    }\n\n    function supportsInterface(bytes4 interfaceId)\n        external\n        pure\n        override\n        returns (bool)\n    {\n        return\n            interfaceId == type(IERC721).interfaceId ||\n            interfaceId == type(IERC2981).interfaceId ||\n            interfaceId == type(IERC165).interfaceId;\n    }\n}\n\n",
  "sourcePath": "/home/apifex/DevProjects/LHNFT/contracts/NFT.sol",
  "compiler": {
    "name": "solc",
    "version": "0.8.10+commit.fc410830.Emscripten.clang"
  },
  "schemaVersion": "3.4.1",
  "updatedAt": "2022-02-26T15:08:58.471Z",
  "networkType": "ethereum",
  "devdoc": {
    "kind": "dev",
    "methods": {},
    "version": 1
  },
  "userdoc": {
    "kind": "user",
    "methods": {},
    "version": 1
  }
}